{
  "contractName": "Admin",
  "abi": [
    {
      "constant": true,
      "inputs": [],
      "name": "owner",
      "outputs": [
        {
          "name": "",
          "type": "address"
        }
      ],
      "payable": false,
      "stateMutability": "view",
      "type": "function",
      "signature": "0x8da5cb5b"
    },
    {
      "inputs": [],
      "payable": false,
      "stateMutability": "nonpayable",
      "type": "constructor",
      "signature": "constructor"
    },
    {
      "anonymous": false,
      "inputs": [
        {
          "indexed": true,
          "name": "admin",
          "type": "address"
        }
      ],
      "name": "AdminAdded",
      "type": "event",
      "signature": "0x44d6d25963f097ad14f29f06854a01f575648a1ef82f30e562ccd3889717e339"
    },
    {
      "anonymous": false,
      "inputs": [
        {
          "indexed": true,
          "name": "admin",
          "type": "address"
        }
      ],
      "name": "AdminRemoved",
      "type": "event",
      "signature": "0xa3b62bc36326052d97ea62d63c3d60308ed4c3ea8ac079dd8499f1e9c4f80c0f"
    },
    {
      "constant": false,
      "inputs": [
        {
          "name": "_admin",
          "type": "address"
        }
      ],
      "name": "addAdmin",
      "outputs": [
        {
          "name": "",
          "type": "bool"
        }
      ],
      "payable": false,
      "stateMutability": "nonpayable",
      "type": "function",
      "signature": "0x70480275"
    },
    {
      "constant": false,
      "inputs": [
        {
          "name": "_admin",
          "type": "address"
        }
      ],
      "name": "removeAdmin",
      "outputs": [
        {
          "name": "",
          "type": "bool"
        }
      ],
      "payable": false,
      "stateMutability": "nonpayable",
      "type": "function",
      "signature": "0x1785f53c"
    },
    {
      "constant": true,
      "inputs": [
        {
          "name": "user",
          "type": "address"
        }
      ],
      "name": "isAdmin",
      "outputs": [
        {
          "name": "",
          "type": "bool"
        }
      ],
      "payable": false,
      "stateMutability": "view",
      "type": "function",
      "signature": "0x24d7806c"
    }
  ],
  "bytecode": "0x608060405234801561001057600080fd5b50336000806101000a81548173ffffffffffffffffffffffffffffffffffffffff021916908373ffffffffffffffffffffffffffffffffffffffff16021790555060018060003373ffffffffffffffffffffffffffffffffffffffff1673ffffffffffffffffffffffffffffffffffffffff16815260200190815260200160002060006101000a81548160ff0219169083151502179055506106bc806100b76000396000f3fe608060405260043610610062576000357c0100000000000000000000000000000000000000000000000000000000900463ffffffff1680631785f53c1461006757806324d7806c146100d057806370480275146101395780638da5cb5b146101a2575b600080fd5b34801561007357600080fd5b506100b66004803603602081101561008a57600080fd5b81019080803573ffffffffffffffffffffffffffffffffffffffff1690602001909291905050506101f9565b604051808215151515815260200191505060405180910390f35b3480156100dc57600080fd5b5061011f600480360360208110156100f357600080fd5b81019080803573ffffffffffffffffffffffffffffffffffffffff16906020019092919050505061042b565b604051808215151515815260200191505060405180910390f35b34801561014557600080fd5b506101886004803603602081101561015c57600080fd5b81019080803573ffffffffffffffffffffffffffffffffffffffff169060200190929190505050610481565b604051808215151515815260200191505060405180910390f35b3480156101ae57600080fd5b506101b761066b565b604051808273ffffffffffffffffffffffffffffffffffffffff1673ffffffffffffffffffffffffffffffffffffffff16815260200191505060405180910390f35b60008060009054906101000a900473ffffffffffffffffffffffffffffffffffffffff1673ffffffffffffffffffffffffffffffffffffffff163373ffffffffffffffffffffffffffffffffffffffff161415156102bf576040517f08c379a000000000000000000000000000000000000000000000000000000000815260040180806020018281038252601a8152602001807f4f6e6c79206f776e65722063616e20616363657373207468697300000000000081525060200191505060405180910390fd5b60011515600160008473ffffffffffffffffffffffffffffffffffffffff1673ffffffffffffffffffffffffffffffffffffffff16815260200190815260200160002060009054906101000a900460ff161515141515610387576040517f08c379a00000000000000000000000000000000000000000000000000000000081526004018080602001828103825260098152602001807f4e6f742061646d696e000000000000000000000000000000000000000000000081525060200191505060405180910390fd5b6000600160008473ffffffffffffffffffffffffffffffffffffffff1673ffffffffffffffffffffffffffffffffffffffff16815260200190815260200160002060006101000a81548160ff0219169083151502179055508173ffffffffffffffffffffffffffffffffffffffff167fa3b62bc36326052d97ea62d63c3d60308ed4c3ea8ac079dd8499f1e9c4f80c0f60405160405180910390a260019050919050565b6000600160008373ffffffffffffffffffffffffffffffffffffffff1673ffffffffffffffffffffffffffffffffffffffff16815260200190815260200160002060009054906101000a900460ff169050919050565b600061048c3361042b565b1515610500576040517f08c379a000000000000000000000000000000000000000000000000000000000815260040180806020018281038252601a8152602001807f4f6e6c792061646d696e2063616e20616363657373207468697300000000000081525060200191505060405180910390fd5b60001515600160008473ffffffffffffffffffffffffffffffffffffffff1673ffffffffffffffffffffffffffffffffffffffff16815260200190815260200160002060009054906101000a900460ff1615151415156105c8576040517f08c379a000000000000000000000000000000000000000000000000000000000815260040180806020018281038252600d8152602001807f416c72656164792061646d696e0000000000000000000000000000000000000081525060200191505060405180910390fd5b60018060008473ffffffffffffffffffffffffffffffffffffffff1673ffffffffffffffffffffffffffffffffffffffff16815260200190815260200160002060006101000a81548160ff0219169083151502179055508173ffffffffffffffffffffffffffffffffffffffff167f44d6d25963f097ad14f29f06854a01f575648a1ef82f30e562ccd3889717e33960405160405180910390a260019050919050565b6000809054906101000a900473ffffffffffffffffffffffffffffffffffffffff168156fea165627a7a72305820508520bd90bc1251fdc9a8db8756a095ba982dc371f65461fef9438d2ac136c50029",
  "source": "pragma solidity ^0.5.0;\nimport \"./Owned.sol\";\n\n/**\n    @author moahelmy\n    @title Admin managers\n*/ \ncontract Admin is Owned {\n    mapping(address => bool) admins;\n    \n    /* modifier to verify caller is admin */\n    modifier onlyAdmin() {\n        require(isAdmin(msg.sender), \"Only admin can access this\");\n        _;\n    }\n\n    /**\n        Events to monitor adding/removing admins\n     */\n    event AdminAdded(address indexed admin);\n    event AdminRemoved(address indexed admin);\n\n    constructor() public {\n        admins[msg.sender] = true;\n    }\n\n    /**\n        @notice Add new admin. only admin can call it\n        @param _admin address of new admin to be added\n        @return success flag\n     */\n    function addAdmin(address _admin)\n        public\n        onlyAdmin\n        returns(bool)\n    {\n        require(admins[_admin] == false, \"Already admin\");\n        admins[_admin] = true;\n        emit AdminAdded(_admin);\n        return true;\n    }\n\n    /**\n        @notice Remove existing admin. only owner can call it\n        @param _admin address of admin to be removed\n        @return success flag\n     */\n    function removeAdmin(address _admin)\n        public\n        onlyOwner\n        returns(bool)\n    {\n        require(admins[_admin] == true, \"Not admin\");\n        admins[_admin] = false;        \n        emit AdminRemoved(_admin);\n        return true;\n    }\n\n    /**\n        @notice Check if user is admin        \n        @param user address of user to be checked\n     */\n    function isAdmin(address user)\n        public\n        view\n        returns(bool)\n    {\n        return admins[user];\n    }\n}\n",
  "sourcePath": "/home/mohammad/Dev/block_chain/projects/final-project-moahelmy/contracts/Admin.sol",
  "compiler": {
    "name": "solc",
    "version": "0.5.0+commit.1d4f565a.Emscripten.clang"
  },
  "schemaVersion": "3.0.1",
  "updatedAt": "2019-01-28T02:24:25.161Z",
  "devdoc": {
    "author": "moahelmy",
    "methods": {
      "addAdmin(address)": {
        "params": {
          "_admin": "address of new admin to be added"
        },
        "return": "success flag"
      },
      "isAdmin(address)": {
        "params": {
          "user": "address of user to be checked"
        }
      },
      "removeAdmin(address)": {
        "params": {
          "_admin": "address of admin to be removed"
        },
        "return": "success flag"
      }
    },
    "title": "Admin managers"
  },
  "userdoc": {
    "methods": {
      "addAdmin(address)": {
        "notice": "Add new admin. only admin can call it"
      },
      "isAdmin(address)": {
        "notice": "Check if user is admin        "
      },
      "removeAdmin(address)": {
        "notice": "Remove existing admin. only owner can call it"
      }
    }
  }
}