{
  "contractName": "BountyNest",
  "abi": [
    {
      "constant": true,
      "inputs": [
        {
          "name": "",
          "type": "address"
        }
      ],
      "name": "enrolled",
      "outputs": [
        {
          "name": "",
          "type": "bool"
        }
      ],
      "payable": false,
      "stateMutability": "view",
      "type": "function",
      "signature": "0x10eb0e0e"
    },
    {
      "constant": false,
      "inputs": [
        {
          "name": "_admin",
          "type": "address"
        }
      ],
      "name": "removeAdmin",
      "outputs": [
        {
          "name": "",
          "type": "bool"
        }
      ],
      "payable": false,
      "stateMutability": "nonpayable",
      "type": "function",
      "signature": "0x1785f53c"
    },
    {
      "constant": true,
      "inputs": [
        {
          "name": "user",
          "type": "address"
        }
      ],
      "name": "isAdmin",
      "outputs": [
        {
          "name": "",
          "type": "bool"
        }
      ],
      "payable": false,
      "stateMutability": "view",
      "type": "function",
      "signature": "0x24d7806c"
    },
    {
      "constant": false,
      "inputs": [
        {
          "name": "withdrawAmount",
          "type": "uint256"
        }
      ],
      "name": "withdraw",
      "outputs": [
        {
          "name": "",
          "type": "uint256"
        }
      ],
      "payable": false,
      "stateMutability": "nonpayable",
      "type": "function",
      "signature": "0x2e1a7d4d"
    },
    {
      "constant": false,
      "inputs": [],
      "name": "toggle",
      "outputs": [],
      "payable": false,
      "stateMutability": "nonpayable",
      "type": "function",
      "signature": "0x40a3d246"
    },
    {
      "constant": false,
      "inputs": [
        {
          "name": "_admin",
          "type": "address"
        }
      ],
      "name": "addAdmin",
      "outputs": [
        {
          "name": "",
          "type": "bool"
        }
      ],
      "payable": false,
      "stateMutability": "nonpayable",
      "type": "function",
      "signature": "0x70480275"
    },
    {
      "constant": true,
      "inputs": [],
      "name": "owner",
      "outputs": [
        {
          "name": "",
          "type": "address"
        }
      ],
      "payable": false,
      "stateMutability": "view",
      "type": "function",
      "signature": "0x8da5cb5b"
    },
    {
      "constant": true,
      "inputs": [],
      "name": "balance",
      "outputs": [
        {
          "name": "",
          "type": "uint256"
        }
      ],
      "payable": false,
      "stateMutability": "view",
      "type": "function",
      "signature": "0xb69ef8a8"
    },
    {
      "constant": false,
      "inputs": [
        {
          "name": "from",
          "type": "address"
        },
        {
          "name": "to",
          "type": "address"
        },
        {
          "name": "amount",
          "type": "uint256"
        }
      ],
      "name": "transfer",
      "outputs": [],
      "payable": false,
      "stateMutability": "nonpayable",
      "type": "function",
      "signature": "0xbeabacc8"
    },
    {
      "constant": false,
      "inputs": [],
      "name": "deposit",
      "outputs": [
        {
          "name": "",
          "type": "uint256"
        }
      ],
      "payable": true,
      "stateMutability": "payable",
      "type": "function",
      "signature": "0xd0e30db0"
    },
    {
      "inputs": [
        {
          "name": "_externalStorage",
          "type": "address"
        }
      ],
      "payable": false,
      "stateMutability": "nonpayable",
      "type": "constructor",
      "signature": "constructor"
    },
    {
      "payable": false,
      "stateMutability": "nonpayable",
      "type": "fallback"
    },
    {
      "anonymous": false,
      "inputs": [
        {
          "indexed": true,
          "name": "bountyId",
          "type": "uint256"
        }
      ],
      "name": "Opened",
      "type": "event",
      "signature": "0x076ee234681125279e2cfc540cc3442961385c988bd343b4081105999f39f5ea"
    },
    {
      "anonymous": false,
      "inputs": [
        {
          "indexed": true,
          "name": "bountyId",
          "type": "uint256"
        }
      ],
      "name": "Closed",
      "type": "event",
      "signature": "0x6cc09e7b5c3e49861ebe8f6867e1618fbfc14c8d0e968fde37c4243ca02a6f83"
    },
    {
      "anonymous": false,
      "inputs": [
        {
          "indexed": true,
          "name": "bountyId",
          "type": "uint256"
        }
      ],
      "name": "Resolved",
      "type": "event",
      "signature": "0x148a25ee2a7671350ab878ff183447de8ae5afa2ee0ae7d5ee1ad6b25c4868c2"
    },
    {
      "anonymous": false,
      "inputs": [
        {
          "indexed": true,
          "name": "bountyId",
          "type": "uint256"
        },
        {
          "indexed": true,
          "name": "submissionId",
          "type": "uint256"
        }
      ],
      "name": "SubmissionAdded",
      "type": "event",
      "signature": "0xb34fe1894a76239d166f0e4f1a2f32bdf5efa05712414563a602290858da6e3c"
    },
    {
      "anonymous": false,
      "inputs": [
        {
          "indexed": true,
          "name": "submissionId",
          "type": "uint256"
        },
        {
          "indexed": true,
          "name": "bountyId",
          "type": "uint256"
        }
      ],
      "name": "SubmissionAccepted",
      "type": "event",
      "signature": "0xeeab403a51dc57d3c68f2c9b10735da6e27f72625d8e69cfb640a163abd6cbdc"
    },
    {
      "anonymous": false,
      "inputs": [
        {
          "indexed": true,
          "name": "submissionId",
          "type": "uint256"
        },
        {
          "indexed": true,
          "name": "bountyId",
          "type": "uint256"
        }
      ],
      "name": "SubmissionRejected",
      "type": "event",
      "signature": "0x509b9caa1d8aa63ed3b07c9e4f67665454a5d6b7f2ca51c89db25e0492027433"
    },
    {
      "anonymous": false,
      "inputs": [
        {
          "indexed": true,
          "name": "accountAddress",
          "type": "address"
        }
      ],
      "name": "LogEnrolled",
      "type": "event",
      "signature": "0x990c442e6adb818b8fa7db3cf1023decd07f7b66e5306928c7ed527d974192bb"
    },
    {
      "anonymous": false,
      "inputs": [
        {
          "indexed": true,
          "name": "accountAddress",
          "type": "address"
        },
        {
          "indexed": true,
          "name": "amount",
          "type": "uint256"
        }
      ],
      "name": "LogDepositMade",
      "type": "event",
      "signature": "0xa8126f7572bb1fdeae5b5aa9ec126438b91f658a07873f009d041ae690f3a193"
    },
    {
      "anonymous": false,
      "inputs": [
        {
          "indexed": true,
          "name": "accountAddress",
          "type": "address"
        },
        {
          "indexed": true,
          "name": "withdrawAmount",
          "type": "uint256"
        },
        {
          "indexed": true,
          "name": "newBalance",
          "type": "uint256"
        }
      ],
      "name": "LogWithdrawal",
      "type": "event",
      "signature": "0xf9226daf630542048a23086c6af599511aac100ec8f532793cc9697d061bed7e"
    },
    {
      "anonymous": false,
      "inputs": [
        {
          "indexed": true,
          "name": "from",
          "type": "address"
        },
        {
          "indexed": true,
          "name": "to",
          "type": "address"
        },
        {
          "indexed": false,
          "name": "amount",
          "type": "uint256"
        },
        {
          "indexed": false,
          "name": "fromBalance",
          "type": "uint256"
        },
        {
          "indexed": false,
          "name": "toBalance",
          "type": "uint256"
        }
      ],
      "name": "LogTransferDone",
      "type": "event",
      "signature": "0xdef9094bdf35110e64c6e1145ead18ace01e5fcc6984979c741db9c52534beb0"
    },
    {
      "anonymous": false,
      "inputs": [
        {
          "indexed": true,
          "name": "admin",
          "type": "address"
        }
      ],
      "name": "AdminAdded",
      "type": "event",
      "signature": "0x44d6d25963f097ad14f29f06854a01f575648a1ef82f30e562ccd3889717e339"
    },
    {
      "anonymous": false,
      "inputs": [
        {
          "indexed": true,
          "name": "admin",
          "type": "address"
        }
      ],
      "name": "AdminRemoved",
      "type": "event",
      "signature": "0xa3b62bc36326052d97ea62d63c3d60308ed4c3ea8ac079dd8499f1e9c4f80c0f"
    },
    {
      "constant": false,
      "inputs": [
        {
          "name": "_description",
          "type": "string"
        },
        {
          "name": "_reward",
          "type": "uint256"
        }
      ],
      "name": "add",
      "outputs": [
        {
          "name": "bountyId",
          "type": "uint256"
        }
      ],
      "payable": true,
      "stateMutability": "payable",
      "type": "function",
      "signature": "0x36555b85"
    },
    {
      "constant": false,
      "inputs": [
        {
          "name": "bountyId",
          "type": "uint256"
        }
      ],
      "name": "close",
      "outputs": [
        {
          "name": "",
          "type": "bool"
        }
      ],
      "payable": false,
      "stateMutability": "nonpayable",
      "type": "function",
      "signature": "0x0aebeb4e"
    },
    {
      "constant": false,
      "inputs": [
        {
          "name": "bountyId",
          "type": "uint256"
        },
        {
          "name": "resolution",
          "type": "string"
        }
      ],
      "name": "submit",
      "outputs": [
        {
          "name": "submissionId",
          "type": "uint256"
        }
      ],
      "payable": false,
      "stateMutability": "nonpayable",
      "type": "function",
      "signature": "0x5d63f6c6"
    },
    {
      "constant": false,
      "inputs": [
        {
          "name": "submissionId",
          "type": "uint256"
        }
      ],
      "name": "accept",
      "outputs": [],
      "payable": false,
      "stateMutability": "nonpayable",
      "type": "function",
      "signature": "0x19b05f49"
    },
    {
      "constant": false,
      "inputs": [
        {
          "name": "submissionId",
          "type": "uint256"
        }
      ],
      "name": "reject",
      "outputs": [],
      "payable": false,
      "stateMutability": "nonpayable",
      "type": "function",
      "signature": "0xb8adaa11"
    },
    {
      "constant": true,
      "inputs": [],
      "name": "listMyBounties",
      "outputs": [
        {
          "name": "bounties",
          "type": "uint256[]"
        }
      ],
      "payable": false,
      "stateMutability": "view",
      "type": "function",
      "signature": "0x2df5ba65"
    },
    {
      "constant": true,
      "inputs": [],
      "name": "listMySubmissions",
      "outputs": [
        {
          "name": "bounties",
          "type": "uint256[]"
        }
      ],
      "payable": false,
      "stateMutability": "view",
      "type": "function",
      "signature": "0xe00e860b"
    },
    {
      "constant": true,
      "inputs": [
        {
          "name": "bountyId",
          "type": "uint256"
        }
      ],
      "name": "fetchBounty",
      "outputs": [
        {
          "name": "desc",
          "type": "string"
        },
        {
          "name": "reward",
          "type": "uint256"
        },
        {
          "name": "poster",
          "type": "address"
        },
        {
          "name": "state",
          "type": "uint256"
        },
        {
          "name": "submissions",
          "type": "uint256[]"
        }
      ],
      "payable": false,
      "stateMutability": "view",
      "type": "function",
      "signature": "0x77ca8117"
    },
    {
      "constant": true,
      "inputs": [
        {
          "name": "submissionId",
          "type": "uint256"
        }
      ],
      "name": "fetchSubmission",
      "outputs": [
        {
          "name": "bountyId",
          "type": "uint256"
        },
        {
          "name": "resolution",
          "type": "string"
        },
        {
          "name": "submitter",
          "type": "address"
        },
        {
          "name": "state",
          "type": "uint256"
        }
      ],
      "payable": false,
      "stateMutability": "view",
      "type": "function",
      "signature": "0x61c3b40d"
    },
    {
      "constant": true,
      "inputs": [],
      "name": "bountiesCount",
      "outputs": [
        {
          "name": "",
          "type": "uint256"
        }
      ],
      "payable": false,
      "stateMutability": "view",
      "type": "function",
      "signature": "0x13b32e97"
    },
    {
      "constant": false,
      "inputs": [],
      "name": "enroll",
      "outputs": [
        {
          "name": "",
          "type": "bool"
        }
      ],
      "payable": false,
      "stateMutability": "nonpayable",
      "type": "function",
      "signature": "0xe65f2a7e"
    },
    {
      "constant": true,
      "inputs": [
        {
          "name": "bountyId",
          "type": "uint256"
        }
      ],
      "name": "isOpen",
      "outputs": [
        {
          "name": "",
          "type": "bool"
        }
      ],
      "payable": false,
      "stateMutability": "view",
      "type": "function",
      "signature": "0x4d6861a6"
    },
    {
      "constant": true,
      "inputs": [
        {
          "name": "bountyId",
          "type": "uint256"
        }
      ],
      "name": "isClosed",
      "outputs": [
        {
          "name": "",
          "type": "bool"
        }
      ],
      "payable": false,
      "stateMutability": "view",
      "type": "function",
      "signature": "0xd5c78a28"
    },
    {
      "constant": true,
      "inputs": [
        {
          "name": "bountyId",
          "type": "uint256"
        }
      ],
      "name": "isResolved",
      "outputs": [
        {
          "name": "",
          "type": "bool"
        }
      ],
      "payable": false,
      "stateMutability": "view",
      "type": "function",
      "signature": "0xcc4e1954"
    },
    {
      "constant": true,
      "inputs": [
        {
          "name": "submissionId",
          "type": "uint256"
        }
      ],
      "name": "isPending",
      "outputs": [
        {
          "name": "",
          "type": "bool"
        }
      ],
      "payable": false,
      "stateMutability": "view",
      "type": "function",
      "signature": "0xca8836d2"
    },
    {
      "constant": true,
      "inputs": [
        {
          "name": "submissionId",
          "type": "uint256"
        }
      ],
      "name": "isAccepted",
      "outputs": [
        {
          "name": "",
          "type": "bool"
        }
      ],
      "payable": false,
      "stateMutability": "view",
      "type": "function",
      "signature": "0x29bc3b85"
    },
    {
      "constant": true,
      "inputs": [
        {
          "name": "submissionId",
          "type": "uint256"
        }
      ],
      "name": "isRejected",
      "outputs": [
        {
          "name": "",
          "type": "bool"
        }
      ],
      "payable": false,
      "stateMutability": "view",
      "type": "function",
      "signature": "0x098f076e"
    }
  ],
  "bytecode": "0x60806040526000600260006101000a81548160ff0219169083151502179055503480156200002c57600080fd5b5060405160208062004772833981018060405260208110156200004e57600080fd5b8101908080519060200190929190505050336000806101000a81548173ffffffffffffffffffffffffffffffffffffffff021916908373ffffffffffffffffffffffffffffffffffffffff16021790555060018060003373ffffffffffffffffffffffffffffffffffffffff1673ffffffffffffffffffffffffffffffffffffffff16815260200190815260200160002060006101000a81548160ff02191690831515021790555033600560006101000a81548173ffffffffffffffffffffffffffffffffffffffff021916908373ffffffffffffffffffffffffffffffffffffffff16021790555080600660006101000a81548173ffffffffffffffffffffffffffffffffffffffff021916908373ffffffffffffffffffffffffffffffffffffffff16021790555062000192306200019a640100000000026401000000009004565b5050620002e4565b6000600460008373ffffffffffffffffffffffffffffffffffffffff1673ffffffffffffffffffffffffffffffffffffffff16815260200190815260200160002060009054906101000a900460ff161515620002da576001600460008473ffffffffffffffffffffffffffffffffffffffff1673ffffffffffffffffffffffffffffffffffffffff16815260200190815260200160002060006101000a81548160ff0219169083151502179055506000600360008473ffffffffffffffffffffffffffffffffffffffff1673ffffffffffffffffffffffffffffffffffffffff168152602001908152602001600020819055508173ffffffffffffffffffffffffffffffffffffffff167f990c442e6adb818b8fa7db3cf1023decd07f7b66e5306928c7ed527d974192bb60405160405180910390a260019050620002df565b600090505b919050565b61447e80620002f46000396000f3fe60806040526004361061015f576000357c0100000000000000000000000000000000000000000000000000000000900463ffffffff168063098f076e146101715780630aebeb4e146101c457806310eb0e0e1461021757806313b32e97146102805780631785f53c146102ab57806319b05f491461031457806324d7806c1461034f57806329bc3b85146103b85780632df5ba651461040b5780632e1a7d4d1461047757806336555b85146104c657806340a3d2461461059f5780634d6861a6146105b65780635d63f6c61461060957806361c3b40d146106ef57806370480275146107e457806377ca81171461084d5780638da5cb5b1461098a578063b69ef8a8146109e1578063b8adaa1114610a0c578063beabacc814610a47578063ca8836d214610ac2578063cc4e195414610b15578063d0e30db014610b68578063d5c78a2814610b86578063e00e860b14610bd9578063e65f2a7e14610c45575b34801561016b57600080fd5b50600080fd5b34801561017d57600080fd5b506101aa6004803603602081101561019457600080fd5b8101908080359060200190929190505050610c74565b604051808215151515815260200191505060405180910390f35b3480156101d057600080fd5b506101fd600480360360208110156101e757600080fd5b8101908080359060200190929190505050610dc9565b604051808215151515815260200191505060405180910390f35b34801561022357600080fd5b506102666004803603602081101561023a57600080fd5b81019080803573ffffffffffffffffffffffffffffffffffffffff16906020019092919050505061117a565b604051808215151515815260200191505060405180910390f35b34801561028c57600080fd5b5061029561119a565b6040518082815260200191505060405180910390f35b3480156102b757600080fd5b506102fa600480360360208110156102ce57600080fd5b81019080803573ffffffffffffffffffffffffffffffffffffffff169060200190929190505050611260565b604051808215151515815260200191505060405180910390f35b34801561032057600080fd5b5061034d6004803603602081101561033757600080fd5b8101908080359060200190929190505050611492565b005b34801561035b57600080fd5b5061039e6004803603602081101561037257600080fd5b81019080803573ffffffffffffffffffffffffffffffffffffffff169060200190929190505050611aa9565b604051808215151515815260200191505060405180910390f35b3480156103c457600080fd5b506103f1600480360360208110156103db57600080fd5b8101908080359060200190929190505050611aff565b604051808215151515815260200191505060405180910390f35b34801561041757600080fd5b50610420611c54565b6040518080602001828103825283818151815260200191508051906020019060200280838360005b83811015610463578082015181840152602081019050610448565b505050509050019250505060405180910390f35b34801561048357600080fd5b506104b06004803603602081101561049a57600080fd5b8101908080359060200190929190505050611e4c565b6040518082815260200191505060405180910390f35b610589600480360360408110156104dc57600080fd5b81019080803590602001906401000000008111156104f957600080fd5b82018360208201111561050b57600080fd5b8035906020019184600183028401116401000000008311171561052d57600080fd5b91908080601f016020809104026020016040519081016040528093929190818152602001838380828437600081840152601f19601f820116905080830192505050505050509192919290803590602001909291905050506120f1565b6040518082815260200191505060405180910390f35b3480156105ab57600080fd5b506105b4612466565b005b3480156105c257600080fd5b506105ef600480360360208110156105d957600080fd5b8101908080359060200190929190505050612556565b604051808215151515815260200191505060405180910390f35b34801561061557600080fd5b506106d96004803603604081101561062c57600080fd5b81019080803590602001909291908035906020019064010000000081111561065357600080fd5b82018360208201111561066557600080fd5b8035906020019184600183028401116401000000008311171561068757600080fd5b91908080601f016020809104026020016040519081016040528093929190818152602001838380828437600081840152601f19601f8201169050808301925050505050505091929192905050506126f8565b6040518082815260200191505060405180910390f35b3480156106fb57600080fd5b506107286004803603602081101561071257600080fd5b81019080803590602001909291905050506129a9565b60405180858152602001806020018473ffffffffffffffffffffffffffffffffffffffff1673ffffffffffffffffffffffffffffffffffffffff168152602001838152602001828103825285818151815260200191508051906020019080838360005b838110156107a657808201518184015260208101905061078b565b50505050905090810190601f1680156107d35780820380516001836020036101000a031916815260200191505b509550505050505060405180910390f35b3480156107f057600080fd5b506108336004803603602081101561080757600080fd5b81019080803573ffffffffffffffffffffffffffffffffffffffff169060200190929190505050612b00565b604051808215151515815260200191505060405180910390f35b34801561085957600080fd5b506108866004803603602081101561087057600080fd5b8101908080359060200190929190505050612cea565b60405180806020018681526020018573ffffffffffffffffffffffffffffffffffffffff1673ffffffffffffffffffffffffffffffffffffffff16815260200184815260200180602001838103835288818151815260200191508051906020019080838360005b838110156109085780820151818401526020810190506108ed565b50505050905090810190601f1680156109355780820380516001836020036101000a031916815260200191505b50838103825284818151815260200191508051906020019060200280838360005b83811015610971578082015181840152602081019050610956565b5050505090500197505050505050505060405180910390f35b34801561099657600080fd5b5061099f612e93565b604051808273ffffffffffffffffffffffffffffffffffffffff1673ffffffffffffffffffffffffffffffffffffffff16815260200191505060405180910390f35b3480156109ed57600080fd5b506109f6612eb9565b6040518082815260200191505060405180910390f35b348015610a1857600080fd5b50610a4560048036036020811015610a2f57600080fd5b8101908080359060200190929190505050612fc1565b005b348015610a5357600080fd5b50610ac060048036036060811015610a6a57600080fd5b81019080803573ffffffffffffffffffffffffffffffffffffffff169060200190929190803573ffffffffffffffffffffffffffffffffffffffff16906020019092919080359060200190929190505050613447565b005b348015610ace57600080fd5b50610afb60048036036020811015610ae557600080fd5b810190808035906020019092919050505061384a565b604051808215151515815260200191505060405180910390f35b348015610b2157600080fd5b50610b4e60048036036020811015610b3857600080fd5b810190808035906020019092919050505061399f565b604051808215151515815260200191505060405180910390f35b610b70613b41565b6040518082815260200191505060405180910390f35b348015610b9257600080fd5b50610bbf60048036036020811015610ba957600080fd5b8101908080359060200190929190505050613dc9565b604051808215151515815260200191505060405180910390f35b348015610be557600080fd5b50610bee613f6b565b6040518080602001828103825283818151815260200191508051906020019060200280838360005b83811015610c31578082015181840152602081019050610c16565b505050509050019250505060405180910390f35b348015610c5157600080fd5b50610c5a614163565b604051808215151515815260200191505060405180910390f35b600080600660009054906101000a900473ffffffffffffffffffffffffffffffffffffffff1673ffffffffffffffffffffffffffffffffffffffff166361c3b40d846040518263ffffffff167c01000000000000000000000000000000000000000000000000000000000281526004018082815260200191505060006040518083038186803b158015610d0657600080fd5b505afa158015610d1a573d6000803e3d6000fd5b505050506040513d6000823e3d601f19601f820116820180604052506080811015610d4457600080fd5b81019080805190602001909291908051640100000000811115610d6657600080fd5b82810190506020810184811115610d7c57600080fd5b8151856001820283011164010000000082111715610d9957600080fd5b50509291906020018051906020019092919080519060200190929190505050935050505060038114915050919050565b6000813373ffffffffffffffffffffffffffffffffffffffff16610dec8261416b565b73ffffffffffffffffffffffffffffffffffffffff16141515610e77576040517f08c379a000000000000000000000000000000000000000000000000000000000815260040180806020018281038252600a8152602001807f6e6f7420706f737465720000000000000000000000000000000000000000000081525060200191505060405180910390fd5b82610e8181612556565b1515610ef5576040517f08c379a00000000000000000000000000000000000000000000000000000000081526004018080602001828103825260128152602001807f626f756e7479206973206e6f74206f70656e000000000000000000000000000081525060200191505060405180910390fd5b600660009054906101000a900473ffffffffffffffffffffffffffffffffffffffff1673ffffffffffffffffffffffffffffffffffffffff1663b988997f856040518263ffffffff167c010000000000000000000000000000000000000000000000000000000002815260040180828152602001915050600060405180830381600087803b158015610f8657600080fd5b505af1158015610f9a573d6000803e3d6000fd5b50505050837f6cc09e7b5c3e49861ebe8f6867e1618fbfc14c8d0e968fde37c4243ca02a6f8360405160405180910390a2600080600660009054906101000a900473ffffffffffffffffffffffffffffffffffffffff1673ffffffffffffffffffffffffffffffffffffffff166377ca8117876040518263ffffffff167c01000000000000000000000000000000000000000000000000000000000281526004018082815260200191505060006040518083038186803b15801561105d57600080fd5b505afa158015611071573d6000803e3d6000fd5b505050506040513d6000823e3d601f19601f8201168201806040525060a081101561109b57600080fd5b8101908080516401000000008111156110b357600080fd5b828101905060208101848111156110c957600080fd5b81518560018202830111640100000000821117156110e657600080fd5b5050929190602001805190602001909291908051906020019092919080519060200190929190805164010000000081111561112057600080fd5b8281019050602081018481111561113657600080fd5b815185602082028301116401000000008211171561115357600080fd5b50509291905050505050925092505061116d308284613447565b6001945050505050919050565b60046020528060005260406000206000915054906101000a900460ff1681565b6000600660009054906101000a900473ffffffffffffffffffffffffffffffffffffffff1673ffffffffffffffffffffffffffffffffffffffff1663a87d942c6040518163ffffffff167c010000000000000000000000000000000000000000000000000000000002815260040160206040518083038186803b15801561122057600080fd5b505afa158015611234573d6000803e3d6000fd5b505050506040513d602081101561124a57600080fd5b8101908080519060200190929190505050905090565b60008060009054906101000a900473ffffffffffffffffffffffffffffffffffffffff1673ffffffffffffffffffffffffffffffffffffffff163373ffffffffffffffffffffffffffffffffffffffff16141515611326576040517f08c379a000000000000000000000000000000000000000000000000000000000815260040180806020018281038252601a8152602001807f4f6e6c79206f776e65722063616e20616363657373207468697300000000000081525060200191505060405180910390fd5b60011515600160008473ffffffffffffffffffffffffffffffffffffffff1673ffffffffffffffffffffffffffffffffffffffff16815260200190815260200160002060009054906101000a900460ff1615151415156113ee576040517f08c379a00000000000000000000000000000000000000000000000000000000081526004018080602001828103825260098152602001807f4e6f742061646d696e000000000000000000000000000000000000000000000081525060200191505060405180910390fd5b6000600160008473ffffffffffffffffffffffffffffffffffffffff1673ffffffffffffffffffffffffffffffffffffffff16815260200190815260200160002060006101000a81548160ff0219169083151502179055508173ffffffffffffffffffffffffffffffffffffffff167fa3b62bc36326052d97ea62d63c3d60308ed4c3ea8ac079dd8499f1e9c4f80c0f60405160405180910390a260019050919050565b600260009054906101000a900460ff161515156114ae57600080fd5b806114b88161384a565b151561152c576040517f08c379a00000000000000000000000000000000000000000000000000000000081526004018080602001828103825260198152602001807f7375626d697373696f6e206973206e6f742070656e64696e670000000000000081525060200191505060405180910390fd5b600080600660009054906101000a900473ffffffffffffffffffffffffffffffffffffffff1673ffffffffffffffffffffffffffffffffffffffff166361c3b40d856040518263ffffffff167c01000000000000000000000000000000000000000000000000000000000281526004018082815260200191505060006040518083038186803b1580156115be57600080fd5b505afa1580156115d2573d6000803e3d6000fd5b505050506040513d6000823e3d601f19601f8201168201806040525060808110156115fc57600080fd5b8101908080519060200190929190805164010000000081111561161e57600080fd5b8281019050602081018481111561163457600080fd5b815185600182028301116401000000008211171561165157600080fd5b50509291906020018051906020019092919080519060200190929190505050509250509150600080600660009054906101000a900473ffffffffffffffffffffffffffffffffffffffff1673ffffffffffffffffffffffffffffffffffffffff166377ca8117856040518263ffffffff167c01000000000000000000000000000000000000000000000000000000000281526004018082815260200191505060006040518083038186803b15801561170857600080fd5b505afa15801561171c573d6000803e3d6000fd5b505050506040513d6000823e3d601f19601f8201168201806040525060a081101561174657600080fd5b81019080805164010000000081111561175e57600080fd5b8281019050602081018481111561177457600080fd5b815185600182028301116401000000008211171561179157600080fd5b505092919060200180519060200190929190805190602001909291908051906020019092919080516401000000008111156117cb57600080fd5b828101905060208101848111156117e157600080fd5b81518560208202830111640100000000821117156117fe57600080fd5b50509291905050505050925092505061181684612556565b151561182157600080fd5b3373ffffffffffffffffffffffffffffffffffffffff168173ffffffffffffffffffffffffffffffffffffffff1614151561185b57600080fd5b600660009054906101000a900473ffffffffffffffffffffffffffffffffffffffff1673ffffffffffffffffffffffffffffffffffffffff1663f7cb5912856040518263ffffffff167c010000000000000000000000000000000000000000000000000000000002815260040180828152602001915050600060405180830381600087803b1580156118ec57600080fd5b505af1158015611900573d6000803e3d6000fd5b50505050600660009054906101000a900473ffffffffffffffffffffffffffffffffffffffff1673ffffffffffffffffffffffffffffffffffffffff166373cc12f185886040518363ffffffff167c01000000000000000000000000000000000000000000000000000000000281526004018083815260200182815260200192505050600060405180830381600087803b15801561199d57600080fd5b505af11580156119b1573d6000803e3d6000fd5b50505050600660009054906101000a900473ffffffffffffffffffffffffffffffffffffffff1673ffffffffffffffffffffffffffffffffffffffff1663b45deeff876040518263ffffffff167c010000000000000000000000000000000000000000000000000000000002815260040180828152602001915050600060405180830381600087803b158015611a4657600080fd5b505af1158015611a5a573d6000803e3d6000fd5b50505050611a678361430a565b50611a73308484613447565b83867feeab403a51dc57d3c68f2c9b10735da6e27f72625d8e69cfb640a163abd6cbdc60405160405180910390a3505050505050565b6000600160008373ffffffffffffffffffffffffffffffffffffffff1673ffffffffffffffffffffffffffffffffffffffff16815260200190815260200160002060009054906101000a900460ff169050919050565b600080600660009054906101000a900473ffffffffffffffffffffffffffffffffffffffff1673ffffffffffffffffffffffffffffffffffffffff166361c3b40d846040518263ffffffff167c01000000000000000000000000000000000000000000000000000000000281526004018082815260200191505060006040518083038186803b158015611b9157600080fd5b505afa158015611ba5573d6000803e3d6000fd5b505050506040513d6000823e3d601f19601f820116820180604052506080811015611bcf57600080fd5b81019080805190602001909291908051640100000000811115611bf157600080fd5b82810190506020810184811115611c0757600080fd5b8151856001820283011164010000000082111715611c2457600080fd5b50509291906020018051906020019092919080519060200190929190505050935050505060028114915050919050565b6060600073ffffffffffffffffffffffffffffffffffffffff163373ffffffffffffffffffffffffffffffffffffffff1614151515611cfb576040517f08c379a00000000000000000000000000000000000000000000000000000000081526004018080602001828103825260108152602001807f6e6f742076616c69642073656e6465720000000000000000000000000000000081525060200191505060405180910390fd5b600660009054906101000a900473ffffffffffffffffffffffffffffffffffffffff1673ffffffffffffffffffffffffffffffffffffffff1663672d46b5336040518263ffffffff167c0100000000000000000000000000000000000000000000000000000000028152600401808273ffffffffffffffffffffffffffffffffffffffff1673ffffffffffffffffffffffffffffffffffffffff16815260200191505060006040518083038186803b158015611db657600080fd5b505afa158015611dca573d6000803e3d6000fd5b505050506040513d6000823e3d601f19601f820116820180604052506020811015611df457600080fd5b810190808051640100000000811115611e0c57600080fd5b82810190506020810184811115611e2257600080fd5b8151856020820283011164010000000082111715611e3f57600080fd5b5050929190505050905090565b6000600460003373ffffffffffffffffffffffffffffffffffffffff1673ffffffffffffffffffffffffffffffffffffffff16815260200190815260200160002060009054906101000a900460ff161515611f0f576040517f08c379a00000000000000000000000000000000000000000000000000000000081526004018080602001828103825260128152602001807f75736572206e6f7420656e74726f6c6c6564000000000000000000000000000081525060200191505060405180910390fd5b600082118015611f5e5750600360003373ffffffffffffffffffffffffffffffffffffffff1673ffffffffffffffffffffffffffffffffffffffff168152602001908152602001600020548211155b1515611fd2576040517f08c379a00000000000000000000000000000000000000000000000000000000081526004018080602001828103825260118152602001807f696e73756666696369656e742066756e6400000000000000000000000000000081525060200191505060405180910390fd5b600082600360003373ffffffffffffffffffffffffffffffffffffffff1673ffffffffffffffffffffffffffffffffffffffff1681526020019081526020016000205403905080600360003373ffffffffffffffffffffffffffffffffffffffff1673ffffffffffffffffffffffffffffffffffffffff168152602001908152602001600020819055503373ffffffffffffffffffffffffffffffffffffffff166108fc849081150290604051600060405180830381858888f193505050501580156120a2573d6000803e3d6000fd5b5080833373ffffffffffffffffffffffffffffffffffffffff167ff9226daf630542048a23086c6af599511aac100ec8f532793cc9697d061bed7e60405160405180910390a480915050919050565b6000600260009054906101000a900460ff1615151561210f57600080fd5b600073ffffffffffffffffffffffffffffffffffffffff163373ffffffffffffffffffffffffffffffffffffffff16141515156121b4576040517f08c379a00000000000000000000000000000000000000000000000000000000081526004018080602001828103825260108152602001807f6e6f742076616c69642073656e6465720000000000000000000000000000000081525060200191505060405180910390fd5b8180341015151561222d576040517f08c379a000000000000000000000000000000000000000000000000000000000815260040180806020018281038252600a8152602001807f6e6f7420656e6f7567680000000000000000000000000000000000000000000081525060200191505060405180910390fd5b6000831115156122a5576040517f08c379a00000000000000000000000000000000000000000000000000000000081526004018080602001828103825260168152602001807f7265776172642063616e206e6f74206265207a65726f0000000000000000000081525060200191505060405180910390fd5b600660009054906101000a900473ffffffffffffffffffffffffffffffffffffffff1673ffffffffffffffffffffffffffffffffffffffff16639e6be0df3386866040518463ffffffff167c0100000000000000000000000000000000000000000000000000000000028152600401808473ffffffffffffffffffffffffffffffffffffffff1673ffffffffffffffffffffffffffffffffffffffff16815260200180602001838152602001828103825284818151815260200191508051906020019080838360005b8381101561238957808201518184015260208101905061236e565b50505050905090810190601f1680156123b65780820380516001836020036101000a031916815260200191505b50945050505050602060405180830381600087803b1580156123d757600080fd5b505af11580156123eb573d6000803e3d6000fd5b505050506040513d602081101561240157600080fd5b81019080805190602001909291905050509150817f076ee234681125279e2cfc540cc3442961385c988bd343b4081105999f39f5ea60405160405180910390a261244a3361430a565b50612453613b41565b5061245f333085613447565b5092915050565b6000809054906101000a900473ffffffffffffffffffffffffffffffffffffffff1673ffffffffffffffffffffffffffffffffffffffff163373ffffffffffffffffffffffffffffffffffffffff1614151561252a576040517f08c379a000000000000000000000000000000000000000000000000000000000815260040180806020018281038252601a8152602001807f4f6e6c79206f776e65722063616e20616363657373207468697300000000000081525060200191505060405180910390fd5b600260009054906101000a900460ff1615600260006101000a81548160ff021916908315150217905550565b600080600660009054906101000a900473ffffffffffffffffffffffffffffffffffffffff1673ffffffffffffffffffffffffffffffffffffffff166377ca8117846040518263ffffffff167c01000000000000000000000000000000000000000000000000000000000281526004018082815260200191505060006040518083038186803b1580156125e857600080fd5b505afa1580156125fc573d6000803e3d6000fd5b505050506040513d6000823e3d601f19601f8201168201806040525060a081101561262657600080fd5b81019080805164010000000081111561263e57600080fd5b8281019050602081018481111561265457600080fd5b815185600182028301116401000000008211171561267157600080fd5b505092919060200180519060200190929190805190602001909291908051906020019092919080516401000000008111156126ab57600080fd5b828101905060208101848111156126c157600080fd5b81518560208202830111640100000000821117156126de57600080fd5b505092919050505050935050505060018114915050919050565b6000600260009054906101000a900460ff1615151561271657600080fd5b600073ffffffffffffffffffffffffffffffffffffffff163373ffffffffffffffffffffffffffffffffffffffff16141515156127bb576040517f08c379a00000000000000000000000000000000000000000000000000000000081526004018080602001828103825260108152602001807f6e6f742076616c69642073656e6465720000000000000000000000000000000081525060200191505060405180910390fd5b826127c581612556565b1515612839576040517f08c379a00000000000000000000000000000000000000000000000000000000081526004018080602001828103825260128152602001807f626f756e7479206973206e6f74206f70656e000000000000000000000000000081525060200191505060405180910390fd5b600660009054906101000a900473ffffffffffffffffffffffffffffffffffffffff1673ffffffffffffffffffffffffffffffffffffffff16632594f3fe85856040518363ffffffff167c01000000000000000000000000000000000000000000000000000000000281526004018083815260200180602001828103825283818151815260200191508051906020019080838360005b838110156128ea5780820151818401526020810190506128cf565b50505050905090810190601f1680156129175780820380516001836020036101000a031916815260200191505b509350505050602060405180830381600087803b15801561293757600080fd5b505af115801561294b573d6000803e3d6000fd5b505050506040513d602081101561296157600080fd5b8101908080519060200190929190505050915081847fb34fe1894a76239d166f0e4f1a2f32bdf5efa05712414563a602290858da6e3c60405160405180910390a35092915050565b60006060600080600660009054906101000a900473ffffffffffffffffffffffffffffffffffffffff1673ffffffffffffffffffffffffffffffffffffffff166361c3b40d866040518263ffffffff167c01000000000000000000000000000000000000000000000000000000000281526004018082815260200191505060006040518083038186803b158015612a3f57600080fd5b505afa158015612a53573d6000803e3d6000fd5b505050506040513d6000823e3d601f19601f820116820180604052506080811015612a7d57600080fd5b81019080805190602001909291908051640100000000811115612a9f57600080fd5b82810190506020810184811115612ab557600080fd5b8151856001820283011164010000000082111715612ad257600080fd5b5050929190602001805190602001909291908051906020019092919050505093509350935093509193509193565b6000612b0b33611aa9565b1515612b7f576040517f08c379a000000000000000000000000000000000000000000000000000000000815260040180806020018281038252601a8152602001807f4f6e6c792061646d696e2063616e20616363657373207468697300000000000081525060200191505060405180910390fd5b60001515600160008473ffffffffffffffffffffffffffffffffffffffff1673ffffffffffffffffffffffffffffffffffffffff16815260200190815260200160002060009054906101000a900460ff161515141515612c47576040517f08c379a000000000000000000000000000000000000000000000000000000000815260040180806020018281038252600d8152602001807f416c72656164792061646d696e0000000000000000000000000000000000000081525060200191505060405180910390fd5b60018060008473ffffffffffffffffffffffffffffffffffffffff1673ffffffffffffffffffffffffffffffffffffffff16815260200190815260200160002060006101000a81548160ff0219169083151502179055508173ffffffffffffffffffffffffffffffffffffffff167f44d6d25963f097ad14f29f06854a01f575648a1ef82f30e562ccd3889717e33960405160405180910390a260019050919050565b606060008060006060600660009054906101000a900473ffffffffffffffffffffffffffffffffffffffff1673ffffffffffffffffffffffffffffffffffffffff166377ca8117876040518263ffffffff167c01000000000000000000000000000000000000000000000000000000000281526004018082815260200191505060006040518083038186803b158015612d8257600080fd5b505afa158015612d96573d6000803e3d6000fd5b505050506040513d6000823e3d601f19601f8201168201806040525060a0811015612dc057600080fd5b810190808051640100000000811115612dd857600080fd5b82810190506020810184811115612dee57600080fd5b8151856001820283011164010000000082111715612e0b57600080fd5b50509291906020018051906020019092919080519060200190929190805190602001909291908051640100000000811115612e4557600080fd5b82810190506020810184811115612e5b57600080fd5b8151856020820283011164010000000082111715612e7857600080fd5b50509291905050509450945094509450945091939590929450565b600560009054906101000a900473ffffffffffffffffffffffffffffffffffffffff1681565b6000600460003373ffffffffffffffffffffffffffffffffffffffff1673ffffffffffffffffffffffffffffffffffffffff16815260200190815260200160002060009054906101000a900460ff161515612f7c576040517f08c379a00000000000000000000000000000000000000000000000000000000081526004018080602001828103825260128152602001807f75736572206e6f7420656e74726f6c6c6564000000000000000000000000000081525060200191505060405180910390fd5b600360003373ffffffffffffffffffffffffffffffffffffffff1673ffffffffffffffffffffffffffffffffffffffff16815260200190815260200160002054905090565b80612fcb8161384a565b151561303f576040517f08c379a00000000000000000000000000000000000000000000000000000000081526004018080602001828103825260198152602001807f7375626d697373696f6e206973206e6f742070656e64696e670000000000000081525060200191505060405180910390fd5b6000600660009054906101000a900473ffffffffffffffffffffffffffffffffffffffff1673ffffffffffffffffffffffffffffffffffffffff166361c3b40d846040518263ffffffff167c01000000000000000000000000000000000000000000000000000000000281526004018082815260200191505060006040518083038186803b1580156130d057600080fd5b505afa1580156130e4573d6000803e3d6000fd5b505050506040513d6000823e3d601f19601f82011682018060405250608081101561310e57600080fd5b8101908080519060200190929190805164010000000081111561313057600080fd5b8281019050602081018481111561314657600080fd5b815185600182028301116401000000008211171561316357600080fd5b5050929190602001805190602001909291908051906020019092919050505050505090506000600660009054906101000a900473ffffffffffffffffffffffffffffffffffffffff1673ffffffffffffffffffffffffffffffffffffffff166377ca8117836040518263ffffffff167c01000000000000000000000000000000000000000000000000000000000281526004018082815260200191505060006040518083038186803b15801561321857600080fd5b505afa15801561322c573d6000803e3d6000fd5b505050506040513d6000823e3d601f19601f8201168201806040525060a081101561325657600080fd5b81019080805164010000000081111561326e57600080fd5b8281019050602081018481111561328457600080fd5b81518560018202830111640100000000821117156132a157600080fd5b505092919060200180519060200190929190805190602001909291908051906020019092919080516401000000008111156132db57600080fd5b828101905060208101848111156132f157600080fd5b815185602082028301116401000000008211171561330e57600080fd5b505092919050505050509250505061332582612556565b151561333057600080fd5b3373ffffffffffffffffffffffffffffffffffffffff168173ffffffffffffffffffffffffffffffffffffffff1614151561336a57600080fd5b600660009054906101000a900473ffffffffffffffffffffffffffffffffffffffff1673ffffffffffffffffffffffffffffffffffffffff16633d21d907856040518263ffffffff167c010000000000000000000000000000000000000000000000000000000002815260040180828152602001915050600060405180830381600087803b1580156133fb57600080fd5b505af115801561340f573d6000803e3d6000fd5b5050505081847f509b9caa1d8aa63ed3b07c9e4f67665454a5d6b7f2ca51c89db25e049202743360405160405180910390a350505050565b600460008473ffffffffffffffffffffffffffffffffffffffff1673ffffffffffffffffffffffffffffffffffffffff16815260200190815260200160002060009054906101000a900460ff161515613508576040517f08c379a00000000000000000000000000000000000000000000000000000000081526004018080602001828103825260118152602001807f66726f6d206e6f7420656e726f6c6c656400000000000000000000000000000081525060200191505060405180910390fd5b600460008373ffffffffffffffffffffffffffffffffffffffff1673ffffffffffffffffffffffffffffffffffffffff16815260200190815260200160002060009054906101000a900460ff1615156135c9576040517f08c379a000000000000000000000000000000000000000000000000000000000815260040180806020018281038252600f8152602001807f746f206e6f7420656e726f6c6c6564000000000000000000000000000000000081525060200191505060405180910390fd5b600081600360008673ffffffffffffffffffffffffffffffffffffffff1673ffffffffffffffffffffffffffffffffffffffff1681526020019081526020016000205403905060008110151515613688576040517f08c379a00000000000000000000000000000000000000000000000000000000081526004018080602001828103825260148152602001807f696e73756666696369656e742062616c616e636500000000000000000000000081525060200191505060405180910390fd5b6000600360008573ffffffffffffffffffffffffffffffffffffffff1673ffffffffffffffffffffffffffffffffffffffff1681526020019081526020016000205483019050600081111515613746576040517f08c379a00000000000000000000000000000000000000000000000000000000081526004018080602001828103825260108152602001807f696e7465676572206f766572666c6f770000000000000000000000000000000081525060200191505060405180910390fd5b81600360008773ffffffffffffffffffffffffffffffffffffffff1673ffffffffffffffffffffffffffffffffffffffff1681526020019081526020016000208190555080600360008673ffffffffffffffffffffffffffffffffffffffff1673ffffffffffffffffffffffffffffffffffffffff168152602001908152602001600020819055508373ffffffffffffffffffffffffffffffffffffffff168573ffffffffffffffffffffffffffffffffffffffff167fdef9094bdf35110e64c6e1145ead18ace01e5fcc6984979c741db9c52534beb085858560405180848152602001838152602001828152602001935050505060405180910390a35050505050565b600080600660009054906101000a900473ffffffffffffffffffffffffffffffffffffffff1673ffffffffffffffffffffffffffffffffffffffff166361c3b40d846040518263ffffffff167c01000000000000000000000000000000000000000000000000000000000281526004018082815260200191505060006040518083038186803b1580156138dc57600080fd5b505afa1580156138f0573d6000803e3d6000fd5b505050506040513d6000823e3d601f19601f82011682018060405250608081101561391a57600080fd5b8101908080519060200190929190805164010000000081111561393c57600080fd5b8281019050602081018481111561395257600080fd5b815185600182028301116401000000008211171561396f57600080fd5b50509291906020018051906020019092919080519060200190929190505050935050505060018114915050919050565b600080600660009054906101000a900473ffffffffffffffffffffffffffffffffffffffff1673ffffffffffffffffffffffffffffffffffffffff166377ca8117846040518263ffffffff167c01000000000000000000000000000000000000000000000000000000000281526004018082815260200191505060006040518083038186803b158015613a3157600080fd5b505afa158015613a45573d6000803e3d6000fd5b505050506040513d6000823e3d601f19601f8201168201806040525060a0811015613a6f57600080fd5b810190808051640100000000811115613a8757600080fd5b82810190506020810184811115613a9d57600080fd5b8151856001820283011164010000000082111715613aba57600080fd5b50509291906020018051906020019092919080519060200190929190805190602001909291908051640100000000811115613af457600080fd5b82810190506020810184811115613b0a57600080fd5b8151856020820283011164010000000082111715613b2757600080fd5b505092919050505050935050505060038114915050919050565b6000600460003373ffffffffffffffffffffffffffffffffffffffff1673ffffffffffffffffffffffffffffffffffffffff16815260200190815260200160002060009054906101000a900460ff161515613c04576040517f08c379a00000000000000000000000000000000000000000000000000000000081526004018080602001828103825260118152602001807f75736572206e6f7420656e726f6c6c656400000000000000000000000000000081525060200191505060405180910390fd5b600034111515613c7c576040517f08c379a00000000000000000000000000000000000000000000000000000000081526004018080602001828103825260178152602001807f616d6f756e74206d75737420626520706f73697469766500000000000000000081525060200191505060405180910390fd5b6000600360003373ffffffffffffffffffffffffffffffffffffffff1673ffffffffffffffffffffffffffffffffffffffff1681526020019081526020016000205434019050600081111515613d3a576040517f08c379a00000000000000000000000000000000000000000000000000000000081526004018080602001828103825260108152602001807f696e7465676572206f766572666c6f770000000000000000000000000000000081525060200191505060405180910390fd5b80600360003373ffffffffffffffffffffffffffffffffffffffff1673ffffffffffffffffffffffffffffffffffffffff16815260200190815260200160002081905550343373ffffffffffffffffffffffffffffffffffffffff167fa8126f7572bb1fdeae5b5aa9ec126438b91f658a07873f009d041ae690f3a19360405160405180910390a38091505090565b600080600660009054906101000a900473ffffffffffffffffffffffffffffffffffffffff1673ffffffffffffffffffffffffffffffffffffffff166377ca8117846040518263ffffffff167c01000000000000000000000000000000000000000000000000000000000281526004018082815260200191505060006040518083038186803b158015613e5b57600080fd5b505afa158015613e6f573d6000803e3d6000fd5b505050506040513d6000823e3d601f19601f8201168201806040525060a0811015613e9957600080fd5b810190808051640100000000811115613eb157600080fd5b82810190506020810184811115613ec757600080fd5b8151856001820283011164010000000082111715613ee457600080fd5b50509291906020018051906020019092919080519060200190929190805190602001909291908051640100000000811115613f1e57600080fd5b82810190506020810184811115613f3457600080fd5b8151856020820283011164010000000082111715613f5157600080fd5b505092919050505050935050505060028114915050919050565b6060600073ffffffffffffffffffffffffffffffffffffffff163373ffffffffffffffffffffffffffffffffffffffff1614151515614012576040517f08c379a00000000000000000000000000000000000000000000000000000000081526004018080602001828103825260108152602001807f6e6f742076616c69642073656e6465720000000000000000000000000000000081525060200191505060405180910390fd5b600660009054906101000a900473ffffffffffffffffffffffffffffffffffffffff1673ffffffffffffffffffffffffffffffffffffffff166376190284336040518263ffffffff167c0100000000000000000000000000000000000000000000000000000000028152600401808273ffffffffffffffffffffffffffffffffffffffff1673ffffffffffffffffffffffffffffffffffffffff16815260200191505060006040518083038186803b1580156140cd57600080fd5b505afa1580156140e1573d6000803e3d6000fd5b505050506040513d6000823e3d601f19601f82011682018060405250602081101561410b57600080fd5b81019080805164010000000081111561412357600080fd5b8281019050602081018481111561413957600080fd5b815185602082028301116401000000008211171561415657600080fd5b5050929190505050905090565b600080905090565b600080600660009054906101000a900473ffffffffffffffffffffffffffffffffffffffff1673ffffffffffffffffffffffffffffffffffffffff166377ca8117846040518263ffffffff167c01000000000000000000000000000000000000000000000000000000000281526004018082815260200191505060006040518083038186803b1580156141fd57600080fd5b505afa158015614211573d6000803e3d6000fd5b505050506040513d6000823e3d601f19601f8201168201806040525060a081101561423b57600080fd5b81019080805164010000000081111561425357600080fd5b8281019050602081018481111561426957600080fd5b815185600182028301116401000000008211171561428657600080fd5b505092919060200180519060200190929190805190602001909291908051906020019092919080516401000000008111156142c057600080fd5b828101905060208101848111156142d657600080fd5b81518560208202830111640100000000821117156142f357600080fd5b505092919050505050509250505080915050919050565b6000600460008373ffffffffffffffffffffffffffffffffffffffff1673ffffffffffffffffffffffffffffffffffffffff16815260200190815260200160002060009054906101000a900460ff161515614448576001600460008473ffffffffffffffffffffffffffffffffffffffff1673ffffffffffffffffffffffffffffffffffffffff16815260200190815260200160002060006101000a81548160ff0219169083151502179055506000600360008473ffffffffffffffffffffffffffffffffffffffff1673ffffffffffffffffffffffffffffffffffffffff168152602001908152602001600020819055508173ffffffffffffffffffffffffffffffffffffffff167f990c442e6adb818b8fa7db3cf1023decd07f7b66e5306928c7ed527d974192bb60405160405180910390a26001905061444d565b600090505b91905056fea165627a7a723058204522268aeeb90584f421a7746993f5504a169e880a7acc58003a090cd1ec23770029",
  "source": "pragma solidity ^0.5.0;\nimport \"./Admin.sol\";\nimport \"./CircuitBreaker.sol\";\nimport \"./SimpleBank.sol\";\nimport \"./BountyNestStorage.sol\";\n\n/**\n    @author moahelmy\n    @title manage bounties contract\n */\ncontract BountyNest is Admin, CircuitBreaker, SimpleBank\n{\n    BountyNestStorage private bnStorage;\n\n    /**\n        Events to track amendement of bounties states\n     */    \n    event Opened(uint indexed bountyId);\n    event Closed(uint indexed bountyId);\n    event Resolved(uint indexed bountyId);\n\n    /**\n        Events to track modifications of submissions\n     */\n    event SubmissionAdded(uint indexed bountyId, uint indexed submissionId);\n    event SubmissionAccepted(uint indexed submissionId, uint indexed bountyId);\n    event SubmissionRejected(uint indexed submissionId, uint indexed bountyId);\n\n    /**\n        modifier to confirm that the caller is bounty poster\n     */\n    modifier onlyPoster(uint bountyId)\n    {\n        require(getPoster(bountyId) == msg.sender, \"not poster\");\n        _;\n    }\n    /**\n        modifier to confirm that paid amound less than value\n     */\n    modifier paidEnough(uint _reward) {\n        require(msg.value >= _reward, \"not enough\"); \n        _;\n    }    \n    /**\n        modifier to confirms if bounty still open\n     */\n    modifier opened(uint bountyId)\n    {\n        require(isOpen(bountyId), \"bounty is not open\");\n        _;\n    }    \n    /**\n        modifer to confirm that submission still open\n     */\n    modifier pending(uint submissionId)\n    {\n        require(isPending(submissionId), \"submission is not pending\");\n        _;\n    }\n\n    /**\n        check if caller not address(0)\n     */\n    modifier validSender()\n    {\n        require(msg.sender != address(0), \"not valid sender\");\n        _;\n    }    \n\n    constructor (address _externalStorage) public\n    {\n        bnStorage = BountyNestStorage(_externalStorage);\n        // enroll contract itself into the simple bank to hold deposit sent by job posters\n        enroll(address(this));\n    }\n\n    /**\n        @notice Add new bounty.\n        @param _description details of the bounty.\n        @param _reward reward to who gonna resolve it. must be gt zero and lt msg.value\n        @return the bounty id to be used in further interactions.\n     */\n    function add(string memory _description, uint _reward)\n        public\n        payable\n        stopInEmergency()\n        validSender()\n        paidEnough(_reward)        \n        returns(uint bountyId)\n    {\n        require(_reward > 0, \"reward can not be zero\");\n        bountyId = bnStorage.addBounty(msg.sender, _description, _reward);\n        emit Opened(bountyId);\n        enroll(msg.sender);\n        deposit();\n        transfer(msg.sender, address(this), _reward);        \n    }\n\n    /**\n        @notice Close existing bounty by poster\n        @param bountyId id of bounty to get closed\n     */\n    function close(uint bountyId)\n        public\n        onlyPoster(bountyId)\n        opened(bountyId)\n        returns(bool)\n    {\n        bnStorage.closeBounty(bountyId);             \n        emit Closed(bountyId);\n        (,uint reward,address poster,,) = bnStorage.fetchBounty(bountyId);\n        transfer(address(this), poster, reward);\n        return true;\n    }\n\n    /**\n        @notice Add new submission to existing bounty\n        @param bountyId id of related bounty\n        @param resolution submission itself\n        @return the id of the created submission\n     */\n    function submit(uint bountyId, string memory resolution)\n        public\n        stopInEmergency()\n        validSender()\n        opened(bountyId)\n        returns(uint submissionId)\n    {\n        submissionId = bnStorage.addSubmission(bountyId, resolution);\n        emit SubmissionAdded(bountyId, submissionId);\n    }\n\n    /**\n        @notice Accept submission by bounty poster\n        @dev it uses inherited simple bank to manager payments\n        @param submissionId id of submission to be accepted\n     */\n    function accept(uint submissionId)\n        public\n        stopInEmergency()        \n        pending(submissionId)        \n    {\n        (uint bountyId,,address submitter,) = bnStorage.fetchSubmission(submissionId);\n        (,uint reward,address poster,,) = bnStorage.fetchBounty(bountyId);\n        require(isOpen(bountyId));\n        require(poster == msg.sender);\n        bnStorage.markAsResolved(bountyId);\n        bnStorage.setAcceptedSubmission(bountyId, submissionId);\n        bnStorage.markAsAccepted(submissionId);        \n        enroll(submitter);\n        transfer(address(this), submitter, reward);\n        emit SubmissionAccepted(submissionId, bountyId);\n    }\n\n    /**\n        @notice Reject submission by bounty poster\n        @dev it uses inherited simple bank to manager payments\n        @param submissionId id of submission to be rejected\n     */\n    function reject(uint submissionId)\n        public\n        pending(submissionId)\n    {\n        (uint bountyId,,,) = bnStorage.fetchSubmission(submissionId);\n        (,,address poster,,) = bnStorage.fetchBounty(bountyId);\n        require(isOpen(bountyId));\n        require(poster == msg.sender);                \n        bnStorage.markAsRejected(submissionId);                \n        emit SubmissionRejected(submissionId, bountyId);\n    }\n\n    /**\n        @notice List all bounties listed by sender\n     */\n    function listMyBounties()\n        public\n        view\n        validSender()\n        returns(uint[] memory bounties)\n    {\n        return bnStorage.listMyBounties(msg.sender);\n    }\n\n    /**\n        @notice List all submissions listed by sender\n     */\n    function listMySubmissions()\n        public\n        view\n        validSender()        \n        returns(uint[] memory bounties)\n    {\n        return bnStorage.listMySubmissions(msg.sender);\n    }\n\n    /**\n        @notice fetch bounty information\n        @param bountyId id of bounty\n     */\n    function fetchBounty(uint bountyId)\n        public\n        view\n        returns(string memory desc, uint reward, address poster, uint state, uint[] memory submissions)\n    {\n        return bnStorage.fetchBounty(bountyId);\n    }\n\n    /**\n        @notice fetch submission information\n        @param submissionId id of submission\n     */\n    function fetchSubmission(uint submissionId)\n        public\n        view        \n        returns(uint bountyId, string memory resolution, address submitter, uint state)\n    {\n        return bnStorage.fetchSubmission(submissionId);        \n    }\n\n    /**\n        @notice get bounties count    \n     */\n    function bountiesCount()\n        public\n        view\n        returns(uint)\n    {\n        return bnStorage.getCount();\n    }\n\n    /**\n        Debutes to be coded later. It's the reason why admin contract is coded so that admins only\n        can resolve debutes\n     */\n    /*\n    function createDepute(uint submissionId, string memory description)\n        public\n        returns(uint deputeId)\n    {\n    }\n\n    function resolveDepute(uint id, bool isPostRight, bool isBountyHunterRight, string memory comment)\n        public\n        returns(bool success)\n    {        \n    }*/\n\n    /**\n        Enroll should not be supported. Better to use a new base class that only allow withdraw if have time.\n     */\n    function enroll() public returns (bool){\n        return false;\n    }\n\n    function getPoster(uint bountyId) \n        internal\n        view\n        returns(address) {\n        (,,address poster,,) = bnStorage.fetchBounty(bountyId);\n        return poster;\n    }\n\n    /**\n        These functions to check status of bounty and submission. used more by tests\n        they will be deleted in the future\n        no need to expose internal state\n     */\n    function isOpen(uint bountyId)\n        public\n        view        \n        returns(bool)\n    {\n        (,,,uint state,) = bnStorage.fetchBounty(bountyId);\n        return state == 1;\n    }\n\n    function isClosed(uint bountyId)\n        public\n        view \n        returns(bool)\n    {\n        (,,,uint state,) = bnStorage.fetchBounty(bountyId);\n        return state == 2;\n    }\n\n    function isResolved(uint bountyId)\n        public\n        view        \n        returns(bool)\n    {\n        (,,,uint state,) = bnStorage.fetchBounty(bountyId);\n        return state == 3;\n    }\n\n    function isPending(uint submissionId)\n        public\n        view        \n        returns(bool)\n    {\n        (,,,uint state) = bnStorage.fetchSubmission(submissionId);\n        return state == 1;\n    }\n\n    function isAccepted(uint submissionId)\n        public\n        view        \n        returns(bool)\n    {\n        (,,,uint state) = bnStorage.fetchSubmission(submissionId);\n        return state == 2;\n    }\n\n    function isRejected(uint submissionId)\n        public\n        view        \n        returns(bool)\n    {\n        (,,,uint state) = bnStorage.fetchSubmission(submissionId);\n        return state == 3;\n    }\n}",
  "sourcePath": "/home/mohammad/Dev/block_chain/projects/final-project-moahelmy/contracts/BountyNest.sol",
  "compiler": {
    "name": "solc",
    "version": "0.5.0+commit.1d4f565a.Emscripten.clang"
  },
  "schemaVersion": "3.0.1",
  "updatedAt": "2019-01-28T08:00:11.210Z",
  "devdoc": {
    "author": "moahelmy",
    "methods": {
      "accept(uint256)": {
        "details": "it uses inherited simple bank to manager payments",
        "params": {
          "submissionId": "id of submission to be accepted"
        }
      },
      "add(string,uint256)": {
        "params": {
          "_description": "details of the bounty.",
          "_reward": "reward to who gonna resolve it. must be gt zero and lt msg.value"
        },
        "return": "the bounty id to be used in further interactions."
      },
      "addAdmin(address)": {
        "params": {
          "_admin": "address of new admin to be added"
        },
        "return": "success flag"
      },
      "balance()": {
        "return": "The balance of the user"
      },
      "close(uint256)": {
        "params": {
          "bountyId": "id of bounty to get closed"
        }
      },
      "deposit()": {
        "return": "The balance of the user after the deposit is made"
      },
      "fetchBounty(uint256)": {
        "params": {
          "bountyId": "id of bounty"
        }
      },
      "fetchSubmission(uint256)": {
        "params": {
          "submissionId": "id of submission"
        }
      },
      "isAdmin(address)": {
        "params": {
          "user": "address of user to be checked"
        }
      },
      "reject(uint256)": {
        "details": "it uses inherited simple bank to manager payments",
        "params": {
          "submissionId": "id of submission to be rejected"
        }
      },
      "removeAdmin(address)": {
        "params": {
          "_admin": "address of admin to be removed"
        },
        "return": "success flag"
      },
      "submit(uint256,string)": {
        "params": {
          "bountyId": "id of related bounty",
          "resolution": "submission itself"
        },
        "return": "the id of the created submission"
      },
      "transfer(address,address,uint256)": {
        "params": {
          "from": "from account",
          "to": "to account    "
        }
      },
      "withdraw(uint256)": {
        "details": "This does not return any excess ether sent to it",
        "params": {
          "withdrawAmount": "amount you want to withdraw"
        },
        "return": "The balance remaining for the user"
      }
    },
    "title": "manage bounties contract"
  },
  "userdoc": {
    "methods": {
      "accept(uint256)": {
        "notice": "Accept submission by bounty poster"
      },
      "add(string,uint256)": {
        "notice": "Add new bounty."
      },
      "addAdmin(address)": {
        "notice": "Add new admin. only admin can call it"
      },
      "balance()": {
        "notice": "Get balance"
      },
      "bountiesCount()": {
        "notice": "get bounties count    "
      },
      "close(uint256)": {
        "notice": "Close existing bounty by poster"
      },
      "deposit()": {
        "notice": "Deposit ether into bank"
      },
      "enroll()": {
        "notice": "Enroll should not be supported. Better to use a new base class that only allow withdraw if have time."
      },
      "fetchBounty(uint256)": {
        "notice": "fetch bounty information"
      },
      "fetchSubmission(uint256)": {
        "notice": "fetch submission information"
      },
      "isAdmin(address)": {
        "notice": "Check if user is admin        "
      },
      "isOpen(uint256)": {
        "notice": "These functions to check status of bounty and submission. used more by tests they will be deleted in the future no need to expose internal state"
      },
      "listMyBounties()": {
        "notice": "List all bounties listed by sender"
      },
      "listMySubmissions()": {
        "notice": "List all submissions listed by sender"
      },
      "reject(uint256)": {
        "notice": "Reject submission by bounty poster"
      },
      "removeAdmin(address)": {
        "notice": "Remove existing admin. only owner can call it"
      },
      "submit(uint256,string)": {
        "notice": "Add new submission to existing bounty"
      },
      "transfer(address,address,uint256)": {
        "notice": "transfer from account to another    "
      },
      "withdraw(uint256)": {
        "notice": "Withdraw ether from bank"
      }
    }
  }
}