{
  "contractName": "BountyNest",
  "abi": [
    {
      "constant": true,
      "inputs": [
        {
          "name": "",
          "type": "address"
        }
      ],
      "name": "enrolled",
      "outputs": [
        {
          "name": "",
          "type": "bool"
        }
      ],
      "payable": false,
      "stateMutability": "view",
      "type": "function",
      "signature": "0x10eb0e0e"
    },
    {
      "constant": true,
      "inputs": [],
      "name": "bountiesCount",
      "outputs": [
        {
          "name": "",
          "type": "uint256"
        }
      ],
      "payable": false,
      "stateMutability": "view",
      "type": "function",
      "signature": "0x13b32e97"
    },
    {
      "constant": false,
      "inputs": [
        {
          "name": "_admin",
          "type": "address"
        }
      ],
      "name": "removeAdmin",
      "outputs": [
        {
          "name": "",
          "type": "bool"
        }
      ],
      "payable": false,
      "stateMutability": "nonpayable",
      "type": "function",
      "signature": "0x1785f53c"
    },
    {
      "constant": true,
      "inputs": [
        {
          "name": "user",
          "type": "address"
        }
      ],
      "name": "isAdmin",
      "outputs": [
        {
          "name": "",
          "type": "bool"
        }
      ],
      "payable": false,
      "stateMutability": "view",
      "type": "function",
      "signature": "0x24d7806c"
    },
    {
      "constant": false,
      "inputs": [
        {
          "name": "withdrawAmount",
          "type": "uint256"
        }
      ],
      "name": "withdraw",
      "outputs": [
        {
          "name": "",
          "type": "uint256"
        }
      ],
      "payable": false,
      "stateMutability": "nonpayable",
      "type": "function",
      "signature": "0x2e1a7d4d"
    },
    {
      "constant": false,
      "inputs": [
        {
          "name": "_admin",
          "type": "address"
        }
      ],
      "name": "addAdmin",
      "outputs": [
        {
          "name": "",
          "type": "bool"
        }
      ],
      "payable": false,
      "stateMutability": "nonpayable",
      "type": "function",
      "signature": "0x70480275"
    },
    {
      "constant": true,
      "inputs": [],
      "name": "submissionsCount",
      "outputs": [
        {
          "name": "",
          "type": "uint256"
        }
      ],
      "payable": false,
      "stateMutability": "view",
      "type": "function",
      "signature": "0x75d44398"
    },
    {
      "constant": true,
      "inputs": [],
      "name": "owner",
      "outputs": [
        {
          "name": "",
          "type": "address"
        }
      ],
      "payable": false,
      "stateMutability": "view",
      "type": "function",
      "signature": "0x8da5cb5b"
    },
    {
      "constant": true,
      "inputs": [
        {
          "name": "",
          "type": "uint256"
        }
      ],
      "name": "bountyList",
      "outputs": [
        {
          "name": "id",
          "type": "uint256"
        },
        {
          "name": "description",
          "type": "string"
        },
        {
          "name": "poster",
          "type": "address"
        },
        {
          "name": "reward",
          "type": "uint256"
        },
        {
          "name": "state",
          "type": "uint8"
        },
        {
          "name": "accepted",
          "type": "uint256"
        }
      ],
      "payable": false,
      "stateMutability": "view",
      "type": "function",
      "signature": "0x9c695749"
    },
    {
      "constant": true,
      "inputs": [
        {
          "name": "",
          "type": "uint256"
        }
      ],
      "name": "submissions",
      "outputs": [
        {
          "name": "id",
          "type": "uint256"
        },
        {
          "name": "bountyId",
          "type": "uint256"
        },
        {
          "name": "resolution",
          "type": "string"
        },
        {
          "name": "submitter",
          "type": "address"
        },
        {
          "name": "state",
          "type": "uint8"
        }
      ],
      "payable": false,
      "stateMutability": "view",
      "type": "function",
      "signature": "0xad73349e"
    },
    {
      "constant": true,
      "inputs": [],
      "name": "balance",
      "outputs": [
        {
          "name": "",
          "type": "uint256"
        }
      ],
      "payable": false,
      "stateMutability": "view",
      "type": "function",
      "signature": "0xb69ef8a8"
    },
    {
      "constant": false,
      "inputs": [
        {
          "name": "from",
          "type": "address"
        },
        {
          "name": "to",
          "type": "address"
        },
        {
          "name": "amount",
          "type": "uint256"
        }
      ],
      "name": "transfer",
      "outputs": [],
      "payable": false,
      "stateMutability": "nonpayable",
      "type": "function",
      "signature": "0xbeabacc8"
    },
    {
      "constant": false,
      "inputs": [],
      "name": "deposit",
      "outputs": [
        {
          "name": "",
          "type": "uint256"
        }
      ],
      "payable": true,
      "stateMutability": "payable",
      "type": "function",
      "signature": "0xd0e30db0"
    },
    {
      "constant": false,
      "inputs": [],
      "name": "enroll",
      "outputs": [
        {
          "name": "",
          "type": "bool"
        }
      ],
      "payable": false,
      "stateMutability": "nonpayable",
      "type": "function",
      "signature": "0xe65f2a7e"
    },
    {
      "inputs": [],
      "payable": false,
      "stateMutability": "nonpayable",
      "type": "constructor",
      "signature": "constructor"
    },
    {
      "payable": false,
      "stateMutability": "nonpayable",
      "type": "fallback"
    },
    {
      "anonymous": false,
      "inputs": [
        {
          "indexed": true,
          "name": "bountyId",
          "type": "uint256"
        }
      ],
      "name": "Opened",
      "type": "event",
      "signature": "0x076ee234681125279e2cfc540cc3442961385c988bd343b4081105999f39f5ea"
    },
    {
      "anonymous": false,
      "inputs": [
        {
          "indexed": true,
          "name": "bountyId",
          "type": "uint256"
        }
      ],
      "name": "Closed",
      "type": "event",
      "signature": "0x6cc09e7b5c3e49861ebe8f6867e1618fbfc14c8d0e968fde37c4243ca02a6f83"
    },
    {
      "anonymous": false,
      "inputs": [
        {
          "indexed": true,
          "name": "bountyId",
          "type": "uint256"
        }
      ],
      "name": "Resolved",
      "type": "event",
      "signature": "0x148a25ee2a7671350ab878ff183447de8ae5afa2ee0ae7d5ee1ad6b25c4868c2"
    },
    {
      "anonymous": false,
      "inputs": [
        {
          "indexed": true,
          "name": "bountyId",
          "type": "uint256"
        },
        {
          "indexed": true,
          "name": "submissionId",
          "type": "uint256"
        }
      ],
      "name": "SubmissionAdded",
      "type": "event",
      "signature": "0xb34fe1894a76239d166f0e4f1a2f32bdf5efa05712414563a602290858da6e3c"
    },
    {
      "anonymous": false,
      "inputs": [
        {
          "indexed": true,
          "name": "submissionId",
          "type": "uint256"
        },
        {
          "indexed": true,
          "name": "bountyId",
          "type": "uint256"
        }
      ],
      "name": "SubmissionAccepted",
      "type": "event",
      "signature": "0xeeab403a51dc57d3c68f2c9b10735da6e27f72625d8e69cfb640a163abd6cbdc"
    },
    {
      "anonymous": false,
      "inputs": [
        {
          "indexed": true,
          "name": "submissionId",
          "type": "uint256"
        },
        {
          "indexed": true,
          "name": "bountyId",
          "type": "uint256"
        }
      ],
      "name": "SubmissionRejected",
      "type": "event",
      "signature": "0x509b9caa1d8aa63ed3b07c9e4f67665454a5d6b7f2ca51c89db25e0492027433"
    },
    {
      "anonymous": false,
      "inputs": [
        {
          "indexed": true,
          "name": "accountAddress",
          "type": "address"
        }
      ],
      "name": "LogEnrolled",
      "type": "event",
      "signature": "0x990c442e6adb818b8fa7db3cf1023decd07f7b66e5306928c7ed527d974192bb"
    },
    {
      "anonymous": false,
      "inputs": [
        {
          "indexed": true,
          "name": "accountAddress",
          "type": "address"
        },
        {
          "indexed": true,
          "name": "amount",
          "type": "uint256"
        }
      ],
      "name": "LogDepositMade",
      "type": "event",
      "signature": "0xa8126f7572bb1fdeae5b5aa9ec126438b91f658a07873f009d041ae690f3a193"
    },
    {
      "anonymous": false,
      "inputs": [
        {
          "indexed": true,
          "name": "accountAddress",
          "type": "address"
        },
        {
          "indexed": true,
          "name": "withdrawAmount",
          "type": "uint256"
        },
        {
          "indexed": true,
          "name": "newBalance",
          "type": "uint256"
        }
      ],
      "name": "LogWithdrawal",
      "type": "event",
      "signature": "0xf9226daf630542048a23086c6af599511aac100ec8f532793cc9697d061bed7e"
    },
    {
      "anonymous": false,
      "inputs": [
        {
          "indexed": true,
          "name": "from",
          "type": "address"
        },
        {
          "indexed": true,
          "name": "to",
          "type": "address"
        },
        {
          "indexed": false,
          "name": "amount",
          "type": "uint256"
        },
        {
          "indexed": false,
          "name": "fromBalance",
          "type": "uint256"
        },
        {
          "indexed": false,
          "name": "toBalance",
          "type": "uint256"
        }
      ],
      "name": "LogTransferDone",
      "type": "event",
      "signature": "0xdef9094bdf35110e64c6e1145ead18ace01e5fcc6984979c741db9c52534beb0"
    },
    {
      "anonymous": false,
      "inputs": [
        {
          "indexed": true,
          "name": "admin",
          "type": "address"
        }
      ],
      "name": "AdminAdded",
      "type": "event",
      "signature": "0x44d6d25963f097ad14f29f06854a01f575648a1ef82f30e562ccd3889717e339"
    },
    {
      "anonymous": false,
      "inputs": [
        {
          "indexed": true,
          "name": "admin",
          "type": "address"
        }
      ],
      "name": "AdminRemoved",
      "type": "event",
      "signature": "0xa3b62bc36326052d97ea62d63c3d60308ed4c3ea8ac079dd8499f1e9c4f80c0f"
    },
    {
      "constant": false,
      "inputs": [
        {
          "name": "_description",
          "type": "string"
        },
        {
          "name": "_reward",
          "type": "uint256"
        }
      ],
      "name": "add",
      "outputs": [
        {
          "name": "bountyId",
          "type": "uint256"
        }
      ],
      "payable": true,
      "stateMutability": "payable",
      "type": "function",
      "signature": "0x36555b85"
    },
    {
      "constant": false,
      "inputs": [
        {
          "name": "bountyId",
          "type": "uint256"
        }
      ],
      "name": "close",
      "outputs": [
        {
          "name": "",
          "type": "bool"
        }
      ],
      "payable": false,
      "stateMutability": "nonpayable",
      "type": "function",
      "signature": "0x0aebeb4e"
    },
    {
      "constant": false,
      "inputs": [
        {
          "name": "bountyId",
          "type": "uint256"
        },
        {
          "name": "resolution",
          "type": "string"
        }
      ],
      "name": "submitResolution",
      "outputs": [
        {
          "name": "submissionId",
          "type": "uint256"
        }
      ],
      "payable": false,
      "stateMutability": "nonpayable",
      "type": "function",
      "signature": "0x0d0633c1"
    },
    {
      "constant": false,
      "inputs": [
        {
          "name": "submissionId",
          "type": "uint256"
        }
      ],
      "name": "accept",
      "outputs": [],
      "payable": false,
      "stateMutability": "nonpayable",
      "type": "function",
      "signature": "0x19b05f49"
    },
    {
      "constant": false,
      "inputs": [
        {
          "name": "submissionId",
          "type": "uint256"
        }
      ],
      "name": "reject",
      "outputs": [],
      "payable": false,
      "stateMutability": "nonpayable",
      "type": "function",
      "signature": "0xb8adaa11"
    },
    {
      "constant": true,
      "inputs": [],
      "name": "listMyBounties",
      "outputs": [
        {
          "name": "bounties",
          "type": "uint256[]"
        }
      ],
      "payable": false,
      "stateMutability": "view",
      "type": "function",
      "signature": "0x2df5ba65"
    },
    {
      "constant": true,
      "inputs": [],
      "name": "listMySubmissions",
      "outputs": [
        {
          "name": "bounties",
          "type": "uint256[]"
        }
      ],
      "payable": false,
      "stateMutability": "view",
      "type": "function",
      "signature": "0xe00e860b"
    },
    {
      "constant": true,
      "inputs": [
        {
          "name": "bountyId",
          "type": "uint256"
        }
      ],
      "name": "fetchBounty",
      "outputs": [
        {
          "name": "desc",
          "type": "string"
        },
        {
          "name": "reward",
          "type": "uint256"
        },
        {
          "name": "poster",
          "type": "address"
        },
        {
          "name": "state",
          "type": "uint256"
        },
        {
          "name": "_submissions",
          "type": "uint256[]"
        }
      ],
      "payable": false,
      "stateMutability": "view",
      "type": "function",
      "signature": "0x77ca8117"
    },
    {
      "constant": true,
      "inputs": [
        {
          "name": "bountyId",
          "type": "uint256"
        }
      ],
      "name": "isOpen",
      "outputs": [
        {
          "name": "",
          "type": "bool"
        }
      ],
      "payable": false,
      "stateMutability": "view",
      "type": "function",
      "signature": "0x4d6861a6"
    },
    {
      "constant": true,
      "inputs": [
        {
          "name": "bountyId",
          "type": "uint256"
        }
      ],
      "name": "isClosed",
      "outputs": [
        {
          "name": "",
          "type": "bool"
        }
      ],
      "payable": false,
      "stateMutability": "view",
      "type": "function",
      "signature": "0xd5c78a28"
    },
    {
      "constant": true,
      "inputs": [
        {
          "name": "bountyId",
          "type": "uint256"
        }
      ],
      "name": "isResolved",
      "outputs": [
        {
          "name": "",
          "type": "bool"
        }
      ],
      "payable": false,
      "stateMutability": "view",
      "type": "function",
      "signature": "0xcc4e1954"
    },
    {
      "constant": true,
      "inputs": [
        {
          "name": "submissionId",
          "type": "uint256"
        }
      ],
      "name": "isPending",
      "outputs": [
        {
          "name": "",
          "type": "bool"
        }
      ],
      "payable": false,
      "stateMutability": "view",
      "type": "function",
      "signature": "0xca8836d2"
    },
    {
      "constant": true,
      "inputs": [
        {
          "name": "submissionId",
          "type": "uint256"
        }
      ],
      "name": "isAccepted",
      "outputs": [
        {
          "name": "",
          "type": "bool"
        }
      ],
      "payable": false,
      "stateMutability": "view",
      "type": "function",
      "signature": "0x29bc3b85"
    },
    {
      "constant": true,
      "inputs": [
        {
          "name": "submissionId",
          "type": "uint256"
        }
      ],
      "name": "isRejected",
      "outputs": [
        {
          "name": "",
          "type": "bool"
        }
      ],
      "payable": false,
      "stateMutability": "view",
      "type": "function",
      "signature": "0x098f076e"
    }
  ],
  "bytecode": "0x60806040523480156200001157600080fd5b50336000806101000a81548173ffffffffffffffffffffffffffffffffffffffff021916908373ffffffffffffffffffffffffffffffffffffffff16021790555060018060003373ffffffffffffffffffffffffffffffffffffffff1673ffffffffffffffffffffffffffffffffffffffff16815260200190815260200160002060006101000a81548160ff02191690831515021790555033600460006101000a81548173ffffffffffffffffffffffffffffffffffffffff021916908373ffffffffffffffffffffffffffffffffffffffff1602179055506000600581905550600060088190555062000114306200011b640100000000026401000000009004565b5062000265565b6000600360008373ffffffffffffffffffffffffffffffffffffffff1673ffffffffffffffffffffffffffffffffffffffff16815260200190815260200160002060009054906101000a900460ff1615156200025b576001600360008473ffffffffffffffffffffffffffffffffffffffff1673ffffffffffffffffffffffffffffffffffffffff16815260200190815260200160002060006101000a81548160ff0219169083151502179055506000600260008473ffffffffffffffffffffffffffffffffffffffff1673ffffffffffffffffffffffffffffffffffffffff168152602001908152602001600020819055508173ffffffffffffffffffffffffffffffffffffffff167f990c442e6adb818b8fa7db3cf1023decd07f7b66e5306928c7ed527d974192bb60405160405180910390a26001905062000260565b600090505b919050565b613c1a80620002756000396000f3fe60806040526004361061016a576000357c0100000000000000000000000000000000000000000000000000000000900463ffffffff168063098f076e1461017c5780630aebeb4e146101cf5780630d0633c11461022257806310eb0e0e1461030857806313b32e97146103715780631785f53c1461039c57806319b05f491461040557806324d7806c1461044057806329bc3b85146104a95780632df5ba65146104fc5780632e1a7d4d1461056857806336555b85146105b75780634d6861a61461069057806370480275146106e357806375d443981461074c57806377ca8117146107775780638da5cb5b146108b45780639c6957491461090b578063ad73349e14610a1c578063b69ef8a814610b26578063b8adaa1114610b51578063beabacc814610b8c578063ca8836d214610c07578063cc4e195414610c5a578063d0e30db014610cad578063d5c78a2814610ccb578063e00e860b14610d1e578063e65f2a7e14610d8a575b34801561017657600080fd5b50600080fd5b34801561018857600080fd5b506101b56004803603602081101561019f57600080fd5b8101908080359060200190929190505050610db9565b604051808215151515815260200191505060405180910390f35b3480156101db57600080fd5b50610208600480360360208110156101f257600080fd5b8101908080359060200190929190505050610e8d565b604051808215151515815260200191505060405180910390f35b34801561022e57600080fd5b506102f26004803603604081101561024557600080fd5b81019080803590602001909291908035906020019064010000000081111561026c57600080fd5b82018360208201111561027e57600080fd5b803590602001918460018302840111640100000000831117156102a057600080fd5b91908080601f016020809104026020016040519081016040528093929190818152602001838380828437600081840152601f19601f82011690508083019250505050505050919291929050505061108b565b6040518082815260200191505060405180910390f35b34801561031457600080fd5b506103576004803603602081101561032b57600080fd5b81019080803573ffffffffffffffffffffffffffffffffffffffff1690602001909291905050506113d3565b604051808215151515815260200191505060405180910390f35b34801561037d57600080fd5b506103866113f3565b6040518082815260200191505060405180910390f35b3480156103a857600080fd5b506103eb600480360360208110156103bf57600080fd5b81019080803573ffffffffffffffffffffffffffffffffffffffff1690602001909291905050506113f9565b604051808215151515815260200191505060405180910390f35b34801561041157600080fd5b5061043e6004803603602081101561042857600080fd5b810190808035906020019092919050505061162b565b005b34801561044c57600080fd5b5061048f6004803603602081101561046357600080fd5b81019080803573ffffffffffffffffffffffffffffffffffffffff169060200190929190505050611a88565b604051808215151515815260200191505060405180910390f35b3480156104b557600080fd5b506104e2600480360360208110156104cc57600080fd5b8101908080359060200190929190505050611ade565b604051808215151515815260200191505060405180910390f35b34801561050857600080fd5b50610511611bb3565b6040518080602001828103825283818151815260200191508051906020019060200280838360005b83811015610554578082015181840152602081019050610539565b505050509050019250505060405180910390f35b34801561057457600080fd5b506105a16004803603602081101561058b57600080fd5b8101908080359060200190929190505050611ced565b6040518082815260200191505060405180910390f35b61067a600480360360408110156105cd57600080fd5b81019080803590602001906401000000008111156105ea57600080fd5b8201836020820111156105fc57600080fd5b8035906020019184600183028401116401000000008311171561061e57600080fd5b91908080601f016020809104026020016040519081016040528093929190818152602001838380828437600081840152601f19601f82011690508083019250505050505050919291929080359060200190929190505050611f92565b6040518082815260200191505060405180910390f35b34801561069c57600080fd5b506106c9600480360360208110156106b357600080fd5b8101908080359060200190929190505050612359565b604051808215151515815260200191505060405180910390f35b3480156106ef57600080fd5b506107326004803603602081101561070657600080fd5b81019080803573ffffffffffffffffffffffffffffffffffffffff16906020019092919050505061242e565b604051808215151515815260200191505060405180910390f35b34801561075857600080fd5b50610761612618565b6040518082815260200191505060405180910390f35b34801561078357600080fd5b506107b06004803603602081101561079a57600080fd5b810190808035906020019092919050505061261e565b60405180806020018681526020018573ffffffffffffffffffffffffffffffffffffffff1673ffffffffffffffffffffffffffffffffffffffff16815260200184815260200180602001838103835288818151815260200191508051906020019080838360005b83811015610832578082015181840152602081019050610817565b50505050905090810190601f16801561085f5780820380516001836020036101000a031916815260200191505b50838103825284818151815260200191508051906020019060200280838360005b8381101561089b578082015181840152602081019050610880565b5050505090500197505050505050505060405180910390f35b3480156108c057600080fd5b506108c9612895565b604051808273ffffffffffffffffffffffffffffffffffffffff1673ffffffffffffffffffffffffffffffffffffffff16815260200191505060405180910390f35b34801561091757600080fd5b506109446004803603602081101561092e57600080fd5b81019080803590602001909291905050506128bb565b60405180878152602001806020018673ffffffffffffffffffffffffffffffffffffffff1673ffffffffffffffffffffffffffffffffffffffff16815260200185815260200184600281111561099657fe5b60ff168152602001838152602001828103825287818151815260200191508051906020019080838360005b838110156109dc5780820151818401526020810190506109c1565b50505050905090810190601f168015610a095780820380516001836020036101000a031916815260200191505b5097505050505050505060405180910390f35b348015610a2857600080fd5b50610a5560048036036020811015610a3f57600080fd5b81019080803590602001909291905050506129bc565b60405180868152602001858152602001806020018473ffffffffffffffffffffffffffffffffffffffff1673ffffffffffffffffffffffffffffffffffffffff168152602001836002811115610aa757fe5b60ff168152602001828103825285818151815260200191508051906020019080838360005b83811015610ae7578082015181840152602081019050610acc565b50505050905090810190601f168015610b145780820380516001836020036101000a031916815260200191505b50965050505050505060405180910390f35b348015610b3257600080fd5b50610b3b612ab7565b6040518082815260200191505060405180910390f35b348015610b5d57600080fd5b50610b8a60048036036020811015610b7457600080fd5b8101908080359060200190929190505050612bbf565b005b348015610b9857600080fd5b50610c0560048036036060811015610baf57600080fd5b81019080803573ffffffffffffffffffffffffffffffffffffffff169060200190929190803573ffffffffffffffffffffffffffffffffffffffff16906020019092919080359060200190929190505050612c47565b005b348015610c1357600080fd5b50610c4060048036036020811015610c2a57600080fd5b8101908080359060200190929190505050613006565b604051808215151515815260200191505060405180910390f35b348015610c6657600080fd5b50610c9360048036036020811015610c7d57600080fd5b81019080803590602001909291905050506130db565b604051808215151515815260200191505060405180910390f35b610cb56131af565b6040518082815260200191505060405180910390f35b348015610cd757600080fd5b50610d0460048036036020811015610cee57600080fd5b8101908080359060200190929190505050613437565b604051808215151515815260200191505060405180910390f35b348015610d2a57600080fd5b50610d3361350c565b6040518080602001828103825283818151815260200191508051906020019060200280838360005b83811015610d76578082015181840152602081019050610d5b565b505050509050019250505060405180910390f35b348015610d9657600080fd5b50610d9f613646565b604051808215151515815260200191505060405180910390f35b600081806009600083815260200190815260200160002060000154141515610e49576040517f08c379a000000000000000000000000000000000000000000000000000000000815260040180806020018281038252600a8152602001807f6e6f74206578697374730000000000000000000000000000000000000000000081525060200191505060405180910390fd5b600280811115610e5557fe5b6009600085815260200190815260200160002060030160149054906101000a900460ff166002811115610e8457fe5b14915050919050565b6000813373ffffffffffffffffffffffffffffffffffffffff166006600083815260200190815260200160002060020160009054906101000a900473ffffffffffffffffffffffffffffffffffffffff1673ffffffffffffffffffffffffffffffffffffffff16141515610f69576040517f08c379a000000000000000000000000000000000000000000000000000000000815260040180806020018281038252600a8152602001807f6e6f7420706f737465720000000000000000000000000000000000000000000081525060200191505060405180910390fd5b8260006002811115610f7757fe5b6006600083815260200190815260200160002060040160009054906101000a900460ff166002811115610fa657fe5b14151561101b576040517f08c379a00000000000000000000000000000000000000000000000000000000081526004018080602001828103825260128152602001807f626f756e7479206973206e6f74206f70656e000000000000000000000000000081525060200191505060405180910390fd5b60016006600086815260200190815260200160002060040160006101000a81548160ff0219169083600281111561104e57fe5b0217905550837f6cc09e7b5c3e49861ebe8f6867e1618fbfc14c8d0e968fde37c4243ca02a6f8360405160405180910390a2600192505050919050565b60008073ffffffffffffffffffffffffffffffffffffffff163373ffffffffffffffffffffffffffffffffffffffff1614151515611131576040517f08c379a00000000000000000000000000000000000000000000000000000000081526004018080602001828103825260108152602001807f6e6f742076616c69642073656e6465720000000000000000000000000000000081525060200191505060405180910390fd5b826000600281111561113f57fe5b6006600083815260200190815260200160002060040160009054906101000a900460ff16600281111561116e57fe5b1415156111e3576040517f08c379a00000000000000000000000000000000000000000000000000000000081526004018080602001828103825260128152602001807f626f756e7479206973206e6f74206f70656e000000000000000000000000000081525060200191505060405180910390fd5b600860008154600101919050819055915060a0604051908101604052808381526020018581526020018481526020013373ffffffffffffffffffffffffffffffffffffffff1681526020016000600281111561123b57fe5b8152506009600084815260200190815260200160002060008201518160000155602082015181600101556040820151816002019080519060200190611281929190613a9d565b5060608201518160030160006101000a81548173ffffffffffffffffffffffffffffffffffffffff021916908373ffffffffffffffffffffffffffffffffffffffff16021790555060808201518160030160146101000a81548160ff021916908360028111156112ed57fe5b0217905550905050600a60003373ffffffffffffffffffffffffffffffffffffffff1673ffffffffffffffffffffffffffffffffffffffff1681526020019081526020016000208290806001815401808255809150509060018203906000526020600020016000909192909190915055506006600085815260200190815260200160002060060182908060018154018082558091505090600182039060005260206000200160009091929091909150555081847fb34fe1894a76239d166f0e4f1a2f32bdf5efa05712414563a602290858da6e3c60405160405180910390a35092915050565b60036020528060005260406000206000915054906101000a900460ff1681565b60055481565b60008060009054906101000a900473ffffffffffffffffffffffffffffffffffffffff1673ffffffffffffffffffffffffffffffffffffffff163373ffffffffffffffffffffffffffffffffffffffff161415156114bf576040517f08c379a000000000000000000000000000000000000000000000000000000000815260040180806020018281038252601a8152602001807f4f6e6c79206f776e65722063616e20616363657373207468697300000000000081525060200191505060405180910390fd5b60011515600160008473ffffffffffffffffffffffffffffffffffffffff1673ffffffffffffffffffffffffffffffffffffffff16815260200190815260200160002060009054906101000a900460ff161515141515611587576040517f08c379a00000000000000000000000000000000000000000000000000000000081526004018080602001828103825260098152602001807f4e6f742061646d696e000000000000000000000000000000000000000000000081525060200191505060405180910390fd5b6000600160008473ffffffffffffffffffffffffffffffffffffffff1673ffffffffffffffffffffffffffffffffffffffff16815260200190815260200160002060006101000a81548160ff0219169083151502179055508173ffffffffffffffffffffffffffffffffffffffff167fa3b62bc36326052d97ea62d63c3d60308ed4c3ea8ac079dd8499f1e9c4f80c0f60405160405180910390a260019050919050565b808060096000838152602001908152602001600020600001541415156116b9576040517f08c379a000000000000000000000000000000000000000000000000000000000815260040180806020018281038252600a8152602001807f6e6f74206578697374730000000000000000000000000000000000000000000081525060200191505060405180910390fd5b81600060028111156116c757fe5b6009600083815260200190815260200160002060030160149054906101000a900460ff1660028111156116f657fe5b14151561176b576040517f08c379a00000000000000000000000000000000000000000000000000000000081526004018080602001828103825260198152602001807f7375626d697373696f6e206973206e6f742070656e64696e670000000000000081525060200191505060405180910390fd5b60096000848152602001908152602001600020600101543373ffffffffffffffffffffffffffffffffffffffff166006600083815260200190815260200160002060020160009054906101000a900473ffffffffffffffffffffffffffffffffffffffff1673ffffffffffffffffffffffffffffffffffffffff1614151561185b576040517f08c379a000000000000000000000000000000000000000000000000000000000815260040180806020018281038252600a8152602001807f6e6f7420706f737465720000000000000000000000000000000000000000000081525060200191505060405180910390fd5b60096000858152602001908152602001600020600101546000600281111561187f57fe5b6006600083815260200190815260200160002060040160009054906101000a900460ff1660028111156118ae57fe5b141515611923576040517f08c379a00000000000000000000000000000000000000000000000000000000081526004018080602001828103825260128152602001807f626f756e7479206973206e6f74206f70656e000000000000000000000000000081525060200191505060405180910390fd5b60016009600087815260200190815260200160002060030160146101000a81548160ff0219169083600281111561195657fe5b021790555060006006600060096000898152602001908152602001600020600101548152602001908152602001600020905085816005018190555060028160040160006101000a81548160ff021916908360028111156119b257fe5b02179055506119f66009600088815260200190815260200160002060030160009054906101000a900473ffffffffffffffffffffffffffffffffffffffff16613656565b50611a3c306009600089815260200190815260200160002060030160009054906101000a900473ffffffffffffffffffffffffffffffffffffffff168360030154612c47565b6009600087815260200190815260200160002060010154867feeab403a51dc57d3c68f2c9b10735da6e27f72625d8e69cfb640a163abd6cbdc60405160405180910390a3505050505050565b6000600160008373ffffffffffffffffffffffffffffffffffffffff1673ffffffffffffffffffffffffffffffffffffffff16815260200190815260200160002060009054906101000a900460ff169050919050565b600081806009600083815260200190815260200160002060000154141515611b6e576040517f08c379a000000000000000000000000000000000000000000000000000000000815260040180806020018281038252600a8152602001807f6e6f74206578697374730000000000000000000000000000000000000000000081525060200191505060405180910390fd5b60016002811115611b7b57fe5b6009600085815260200190815260200160002060030160149054906101000a900460ff166002811115611baa57fe5b14915050919050565b6060600073ffffffffffffffffffffffffffffffffffffffff163373ffffffffffffffffffffffffffffffffffffffff1614151515611c5a576040517f08c379a00000000000000000000000000000000000000000000000000000000081526004018080602001828103825260108152602001807f6e6f742076616c69642073656e6465720000000000000000000000000000000081525060200191505060405180910390fd5b600760003373ffffffffffffffffffffffffffffffffffffffff1673ffffffffffffffffffffffffffffffffffffffff168152602001908152602001600020805480602002602001604051908101604052809291908181526020018280548015611ce357602002820191906000526020600020905b815481526020019060010190808311611ccf575b5050505050905090565b6000600360003373ffffffffffffffffffffffffffffffffffffffff1673ffffffffffffffffffffffffffffffffffffffff16815260200190815260200160002060009054906101000a900460ff161515611db0576040517f08c379a00000000000000000000000000000000000000000000000000000000081526004018080602001828103825260128152602001807f75736572206e6f7420656e74726f6c6c6564000000000000000000000000000081525060200191505060405180910390fd5b600082118015611dff5750600260003373ffffffffffffffffffffffffffffffffffffffff1673ffffffffffffffffffffffffffffffffffffffff168152602001908152602001600020548211155b1515611e73576040517f08c379a00000000000000000000000000000000000000000000000000000000081526004018080602001828103825260118152602001807f696e73756666696369656e742066756e6400000000000000000000000000000081525060200191505060405180910390fd5b600082600260003373ffffffffffffffffffffffffffffffffffffffff1673ffffffffffffffffffffffffffffffffffffffff1681526020019081526020016000205403905080600260003373ffffffffffffffffffffffffffffffffffffffff1673ffffffffffffffffffffffffffffffffffffffff168152602001908152602001600020819055503373ffffffffffffffffffffffffffffffffffffffff166108fc849081150290604051600060405180830381858888f19350505050158015611f43573d6000803e3d6000fd5b5080833373ffffffffffffffffffffffffffffffffffffffff167ff9226daf630542048a23086c6af599511aac100ec8f532793cc9697d061bed7e60405160405180910390a480915050919050565b60008073ffffffffffffffffffffffffffffffffffffffff163373ffffffffffffffffffffffffffffffffffffffff1614151515612038576040517f08c379a00000000000000000000000000000000000000000000000000000000081526004018080602001828103825260108152602001807f6e6f742076616c69642073656e6465720000000000000000000000000000000081525060200191505060405180910390fd5b818034101515156120b1576040517f08c379a000000000000000000000000000000000000000000000000000000000815260040180806020018281038252600a8152602001807f6e6f7420656e6f7567680000000000000000000000000000000000000000000081525060200191505060405180910390fd5b600083111515612129576040517f08c379a00000000000000000000000000000000000000000000000000000000081526004018080602001828103825260168152602001807f7265776172642063616e206e6f74206265207a65726f0000000000000000000081525060200191505060405180910390fd5b600560008154600101919050819055915060e0604051908101604052808381526020018581526020013373ffffffffffffffffffffffffffffffffffffffff1681526020018481526020016000600281111561218157fe5b81526020016000815260200160016040519080825280602002602001820160405280156121bd5781602001602082028038833980820191505090505b50815250600660008481526020019081526020016000206000820151816000015560208201518160010190805190602001906121fa929190613a9d565b5060408201518160020160006101000a81548173ffffffffffffffffffffffffffffffffffffffff021916908373ffffffffffffffffffffffffffffffffffffffff1602179055506060820151816003015560808201518160040160006101000a81548160ff0219169083600281111561227057fe5b021790555060a0820151816005015560c082015181600601908051906020019061229b929190613b1d565b50905050600760003373ffffffffffffffffffffffffffffffffffffffff1673ffffffffffffffffffffffffffffffffffffffff168152602001908152602001600020829080600181540180825580915050906001820390600052602060002001600090919290919091505550612310613646565b506123196131af565b50612325333034612c47565b817f076ee234681125279e2cfc540cc3442961385c988bd343b4081105999f39f5ea60405160405180910390a25092915050565b6000818060066000838152602001908152602001600020600001541415156123e9576040517f08c379a000000000000000000000000000000000000000000000000000000000815260040180806020018281038252600a8152602001807f6e6f74206578697374730000000000000000000000000000000000000000000081525060200191505060405180910390fd5b600060028111156123f657fe5b6006600085815260200190815260200160002060040160009054906101000a900460ff16600281111561242557fe5b14915050919050565b600061243933611a88565b15156124ad576040517f08c379a000000000000000000000000000000000000000000000000000000000815260040180806020018281038252601a8152602001807f4f6e6c792061646d696e2063616e20616363657373207468697300000000000081525060200191505060405180910390fd5b60001515600160008473ffffffffffffffffffffffffffffffffffffffff1673ffffffffffffffffffffffffffffffffffffffff16815260200190815260200160002060009054906101000a900460ff161515141515612575576040517f08c379a000000000000000000000000000000000000000000000000000000000815260040180806020018281038252600d8152602001807f416c72656164792061646d696e0000000000000000000000000000000000000081525060200191505060405180910390fd5b60018060008473ffffffffffffffffffffffffffffffffffffffff1673ffffffffffffffffffffffffffffffffffffffff16815260200190815260200160002060006101000a81548160ff0219169083151502179055508173ffffffffffffffffffffffffffffffffffffffff167f44d6d25963f097ad14f29f06854a01f575648a1ef82f30e562ccd3889717e33960405160405180910390a260019050919050565b60085481565b60606000806000606061262f613b6a565b6006600088815260200190815260200160002060e0604051908101604052908160008201548152602001600182018054600181600116156101000203166002900480601f0160208091040260200160405190810160405280929190818152602001828054600181600116156101000203166002900480156126f15780601f106126c6576101008083540402835291602001916126f1565b820191906000526020600020905b8154815290600101906020018083116126d457829003601f168201915b505050505081526020016002820160009054906101000a900473ffffffffffffffffffffffffffffffffffffffff1673ffffffffffffffffffffffffffffffffffffffff1673ffffffffffffffffffffffffffffffffffffffff168152602001600382015481526020016004820160009054906101000a900460ff16600281111561277857fe5b600281111561278357fe5b815260200160058201548152602001600682018054806020026020016040519081016040528092919081815260200182805480156127e057602002820191906000526020600020905b8154815260200190600101908083116127cc575b5050505050815250509050806000015187141561288b578060200151955080606001519450806040015193506000600281111561281957fe5b8160800151600281111561282957fe5b141561283457600192505b6001600281111561284157fe5b8160800151600281111561285157fe5b141561285c57600292505b60028081111561286857fe5b8160800151600281111561287857fe5b141561288357600392505b8060c0015191505b5091939590929450565b600460009054906101000a900473ffffffffffffffffffffffffffffffffffffffff1681565b6006602052806000526040600020600091509050806000015490806001018054600181600116156101000203166002900480601f01602080910402602001604051908101604052809291908181526020018280546001816001161561010002031660029004801561296d5780601f106129425761010080835404028352916020019161296d565b820191906000526020600020905b81548152906001019060200180831161295057829003601f168201915b5050505050908060020160009054906101000a900473ffffffffffffffffffffffffffffffffffffffff16908060030154908060040160009054906101000a900460ff16908060050154905086565b6009602052806000526040600020600091509050806000015490806001015490806002018054600181600116156101000203166002900480601f016020809104026020016040519081016040528092919081815260200182805460018160011615610100020316600290048015612a745780601f10612a4957610100808354040283529160200191612a74565b820191906000526020600020905b815481529060010190602001808311612a5757829003601f168201915b5050505050908060030160009054906101000a900473ffffffffffffffffffffffffffffffffffffffff16908060030160149054906101000a900460ff16905085565b6000600360003373ffffffffffffffffffffffffffffffffffffffff1673ffffffffffffffffffffffffffffffffffffffff16815260200190815260200160002060009054906101000a900460ff161515612b7a576040517f08c379a00000000000000000000000000000000000000000000000000000000081526004018080602001828103825260128152602001807f75736572206e6f7420656e74726f6c6c6564000000000000000000000000000081525060200191505060405180910390fd5b600260003373ffffffffffffffffffffffffffffffffffffffff1673ffffffffffffffffffffffffffffffffffffffff16815260200190815260200160002054905090565b612bc88161379e565b60026009600083815260200190815260200160002060030160146101000a81548160ff02191690836002811115612bfb57fe5b02179055506009600082815260200190815260200160002060010154817f509b9caa1d8aa63ed3b07c9e4f67665454a5d6b7f2ca51c89db25e049202743360405160405180910390a350565b600360008473ffffffffffffffffffffffffffffffffffffffff1673ffffffffffffffffffffffffffffffffffffffff16815260200190815260200160002060009054906101000a900460ff161515612d08576040517f08c379a00000000000000000000000000000000000000000000000000000000081526004018080602001828103825260118152602001807f66726f6d206e6f7420656e726f6c6c656400000000000000000000000000000081525060200191505060405180910390fd5b600360008373ffffffffffffffffffffffffffffffffffffffff1673ffffffffffffffffffffffffffffffffffffffff16815260200190815260200160002060009054906101000a900460ff161515612dc9576040517f08c379a000000000000000000000000000000000000000000000000000000000815260040180806020018281038252600f8152602001807f746f206e6f7420656e726f6c6c6564000000000000000000000000000000000081525060200191505060405180910390fd5b6000600260008573ffffffffffffffffffffffffffffffffffffffff1673ffffffffffffffffffffffffffffffffffffffff168152602001908152602001600020548203905060008110151515612e88576040517f08c379a00000000000000000000000000000000000000000000000000000000081526004018080602001828103825260148152602001807f696e73756666696369656e742062616c616e636500000000000000000000000081525060200191505060405180910390fd5b6000600260008573ffffffffffffffffffffffffffffffffffffffff1673ffffffffffffffffffffffffffffffffffffffff1681526020019081526020016000205483019050600081111515612f46576040517f08c379a00000000000000000000000000000000000000000000000000000000081526004018080602001828103825260108152602001807f696e7465676572206f766572666c6f770000000000000000000000000000000081525060200191505060405180910390fd5b80600260008673ffffffffffffffffffffffffffffffffffffffff1673ffffffffffffffffffffffffffffffffffffffff168152602001908152602001600020819055508373ffffffffffffffffffffffffffffffffffffffff168573ffffffffffffffffffffffffffffffffffffffff167fdef9094bdf35110e64c6e1145ead18ace01e5fcc6984979c741db9c52534beb085858560405180848152602001838152602001828152602001935050505060405180910390a35050505050565b600081806009600083815260200190815260200160002060000154141515613096576040517f08c379a000000000000000000000000000000000000000000000000000000000815260040180806020018281038252600a8152602001807f6e6f74206578697374730000000000000000000000000000000000000000000081525060200191505060405180910390fd5b600060028111156130a357fe5b6009600085815260200190815260200160002060030160149054906101000a900460ff1660028111156130d257fe5b14915050919050565b60008180600660008381526020019081526020016000206000015414151561316b576040517f08c379a000000000000000000000000000000000000000000000000000000000815260040180806020018281038252600a8152602001807f6e6f74206578697374730000000000000000000000000000000000000000000081525060200191505060405180910390fd5b60028081111561317757fe5b6006600085815260200190815260200160002060040160009054906101000a900460ff1660028111156131a657fe5b14915050919050565b6000600360003373ffffffffffffffffffffffffffffffffffffffff1673ffffffffffffffffffffffffffffffffffffffff16815260200190815260200160002060009054906101000a900460ff161515613272576040517f08c379a00000000000000000000000000000000000000000000000000000000081526004018080602001828103825260118152602001807f75736572206e6f7420656e726f6c6c656400000000000000000000000000000081525060200191505060405180910390fd5b6000341115156132ea576040517f08c379a00000000000000000000000000000000000000000000000000000000081526004018080602001828103825260178152602001807f616d6f756e74206d75737420626520706f73697469766500000000000000000081525060200191505060405180910390fd5b6000600260003373ffffffffffffffffffffffffffffffffffffffff1673ffffffffffffffffffffffffffffffffffffffff16815260200190815260200160002054340190506000811115156133a8576040517f08c379a00000000000000000000000000000000000000000000000000000000081526004018080602001828103825260108152602001807f696e7465676572206f766572666c6f770000000000000000000000000000000081525060200191505060405180910390fd5b80600260003373ffffffffffffffffffffffffffffffffffffffff1673ffffffffffffffffffffffffffffffffffffffff16815260200190815260200160002081905550343373ffffffffffffffffffffffffffffffffffffffff167fa8126f7572bb1fdeae5b5aa9ec126438b91f658a07873f009d041ae690f3a19360405160405180910390a38091505090565b6000818060066000838152602001908152602001600020600001541415156134c7576040517f08c379a000000000000000000000000000000000000000000000000000000000815260040180806020018281038252600a8152602001807f6e6f74206578697374730000000000000000000000000000000000000000000081525060200191505060405180910390fd5b600160028111156134d457fe5b6006600085815260200190815260200160002060040160009054906101000a900460ff16600281111561350357fe5b14915050919050565b6060600073ffffffffffffffffffffffffffffffffffffffff163373ffffffffffffffffffffffffffffffffffffffff16141515156135b3576040517f08c379a00000000000000000000000000000000000000000000000000000000081526004018080602001828103825260108152602001807f6e6f742076616c69642073656e6465720000000000000000000000000000000081525060200191505060405180910390fd5b600a60003373ffffffffffffffffffffffffffffffffffffffff1673ffffffffffffffffffffffffffffffffffffffff16815260200190815260200160002080548060200260200160405190810160405280929190818152602001828054801561363c57602002820191906000526020600020905b815481526020019060010190808311613628575b5050505050905090565b600061365133613656565b905090565b6000600360008373ffffffffffffffffffffffffffffffffffffffff1673ffffffffffffffffffffffffffffffffffffffff16815260200190815260200160002060009054906101000a900460ff161515613794576001600360008473ffffffffffffffffffffffffffffffffffffffff1673ffffffffffffffffffffffffffffffffffffffff16815260200190815260200160002060006101000a81548160ff0219169083151502179055506000600260008473ffffffffffffffffffffffffffffffffffffffff1673ffffffffffffffffffffffffffffffffffffffff168152602001908152602001600020819055508173ffffffffffffffffffffffffffffffffffffffff167f990c442e6adb818b8fa7db3cf1023decd07f7b66e5306928c7ed527d974192bb60405160405180910390a260019050613799565b600090505b919050565b8080600960008381526020019081526020016000206000015414151561382c576040517f08c379a000000000000000000000000000000000000000000000000000000000815260040180806020018281038252600a8152602001807f6e6f74206578697374730000000000000000000000000000000000000000000081525060200191505060405180910390fd5b816000600281111561383a57fe5b6009600083815260200190815260200160002060030160149054906101000a900460ff16600281111561386957fe5b1415156138de576040517f08c379a00000000000000000000000000000000000000000000000000000000081526004018080602001828103825260198152602001807f7375626d697373696f6e206973206e6f742070656e64696e670000000000000081525060200191505060405180910390fd5b60096000848152602001908152602001600020600101543373ffffffffffffffffffffffffffffffffffffffff166006600083815260200190815260200160002060020160009054906101000a900473ffffffffffffffffffffffffffffffffffffffff1673ffffffffffffffffffffffffffffffffffffffff161415156139ce576040517f08c379a000000000000000000000000000000000000000000000000000000000815260040180806020018281038252600a8152602001807f6e6f7420706f737465720000000000000000000000000000000000000000000081525060200191505060405180910390fd5b6009600085815260200190815260200160002060010154600060028111156139f257fe5b6006600083815260200190815260200160002060040160009054906101000a900460ff166002811115613a2157fe5b141515613a96576040517f08c379a00000000000000000000000000000000000000000000000000000000081526004018080602001828103825260128152602001807f626f756e7479206973206e6f74206f70656e000000000000000000000000000081525060200191505060405180910390fd5b5050505050565b828054600181600116156101000203166002900490600052602060002090601f016020900481019282601f10613ade57805160ff1916838001178555613b0c565b82800160010185558215613b0c579182015b82811115613b0b578251825591602001919060010190613af0565b5b509050613b199190613bc9565b5090565b828054828255906000526020600020908101928215613b59579160200282015b82811115613b58578251825591602001919060010190613b3d565b5b509050613b669190613bc9565b5090565b60e0604051908101604052806000815260200160608152602001600073ffffffffffffffffffffffffffffffffffffffff1681526020016000815260200160006002811115613bb557fe5b815260200160008152602001606081525090565b613beb91905b80821115613be7576000816000905550600101613bcf565b5090565b9056fea165627a7a7230582007a8a148564bdb951c20d96fb5de3f2b3897131c37fcc0ef4c9f63478145435c0029",
  "source": "pragma solidity ^0.5.0;\nimport \"./Admin.sol\";\nimport \"./SimpleBank.sol\";\n\n/**\n    @author moahelmy\n    @title manage bounties contract\n */\ncontract BountyNest is Admin, SimpleBank\n{\n    /**\n        Bounty List\n    */    \n    uint public bountiesCount;\n    /// actuall list of bounties that will be looked up\n    mapping(uint => Bounty) public bountyList;        \n    /// contains bouties grouped by poster\n    mapping(address => uint[]) myBounties;\n\n    /**\n        Submissions\n     */\n    uint public submissionsCount;\n    /// list of submissions\n    mapping(uint => Submission) public submissions;\n    /// group submissions by bounty hunters\n    mapping(address => uint[]) mySubmissions;    \n\n    /// enum to track state of bounty\n    enum BountyState { Open, Closed, Resolved }\n\n    struct Bounty\n    {\n        uint id;\n        string description;\n        address poster;\n        uint reward;\n        BountyState state;\n        uint accepted;\n        uint[] submissions;\n    }\n\n    /// enum to track state of submission\n    enum SubmissionState { Pending, Accepted, Rejected }\n    struct Submission\n    {\n        uint id;\n        uint bountyId;        \n        string resolution;\n        address submitter;\n        SubmissionState state;\n    }\n\n    /**\n        Events to track amendement of bounties states\n     */    \n    event Opened(uint indexed bountyId);    \n    event Closed(uint indexed bountyId);\n    event Resolved(uint indexed bountyId);\n\n    /**\n        Events to track modifications of submissions\n     */\n    event SubmissionAdded(uint indexed bountyId, uint indexed submissionId);\n    event SubmissionAccepted(uint indexed submissionId, uint indexed bountyId);\n    event SubmissionRejected(uint indexed submissionId, uint indexed bountyId);\n\n    /**\n        modifier to confirm that the caller is bounty poster\n     */\n    modifier onlyPoster(uint bountyId)\n    {\n        require(bountyList[bountyId].poster == msg.sender, \"not poster\");\n        _;\n    }\n    /**\n        modifier to confirm that paid amound less than value\n     */\n    modifier paidEnough(uint _reward) {\n        require(msg.value >= _reward, \"not enough\"); \n        _;\n    }\n    /**\n        modifier to check if bounty exists\n     */\n    modifier bountyExists(uint bountyId)\n    {\n        require(bountyList[bountyId].id == bountyId, \"not exists\");\n        _;\n    }\n    /**\n        modifier to confirms if bounty still open\n     */\n    modifier opened(uint bountyId)\n    {\n        require(bountyList[bountyId].state == BountyState.Open, \"bounty is not open\");\n        _;\n    }\n    /**\n        modifier to check if submission exists\n     */\n    modifier submissionExists(uint id)\n    {\n        require(submissions[id].id == id, \"not exists\");\n        _;\n    }\n    /**\n        modifer to confirm that submission still open\n     */\n    modifier pending(uint submissionId)\n    {\n        require(submissions[submissionId].state == SubmissionState.Pending, \"submission is not pending\");\n        _;\n    }\n\n    /**\n        check if caller not address(0)\n     */\n    modifier validSender()\n    {\n        require(msg.sender != address(0), \"not valid sender\");\n        _;\n    }    \n\n    constructor() public\n    {\n        bountiesCount = 0;\n        submissionsCount = 0;\n        \n        // enroll contract itself into the simple bank to hold deposit sent by job posters\n        enroll(address(this));\n    }\n\n    /**\n        @notice Add new bounty.\n        @param _description details of the bounty.\n        @param _reward reward to who gonna resolve it. must be gt zero and lt msg.value\n        @return the bounty id to be used in further interactions.\n     */\n    function add(string memory _description, uint _reward)\n        public\n        payable\n        validSender()\n        paidEnough(_reward)\n        returns(uint bountyId)\n    {\n        require(_reward > 0, \"reward can not be zero\");\n        bountyId = ++bountiesCount;\n        bountyList[bountyId] = Bounty({\n            id: bountyId,\n            description: _description,\n            reward: _reward,\n            state: BountyState.Open,\n            poster: msg.sender,\n            accepted: 0,\n            submissions: new uint[](1)\n        });        \n        myBounties[msg.sender].push(bountyId);\n        enroll();\n        deposit();\n        transfer(msg.sender, address(this), msg.value);\n        emit Opened(bountyId);\n    }\n\n    /**\n        @notice Close existing bounty by poster\n        @param bountyId id of bounty to get closed\n     */\n    function close(uint bountyId)\n        public\n        onlyPoster(bountyId)\n        opened(bountyId)\n        returns(bool)\n    {   \n        bountyList[bountyId].state = BountyState.Closed;\n        emit Closed(bountyId);\n        return true;\n    }\n\n    /**\n        @notice Add new submission to existing bounty\n        @param bountyId id of related bounty\n        @param resolution submission itself\n        @return the id of the created submission\n     */\n    function submitResolution(uint bountyId, string memory resolution)\n        public\n        validSender()\n        opened(bountyId)\n        returns(uint submissionId)\n    {\n        submissionId = ++submissionsCount;\n        submissions[submissionId] = Submission({\n            id: submissionId,\n            bountyId: bountyId,\n            resolution: resolution,\n            submitter: msg.sender,\n            state: SubmissionState.Pending\n        });\n        mySubmissions[msg.sender].push(submissionId);\n        bountyList[bountyId].submissions.push(submissionId);\n        emit SubmissionAdded(bountyId, submissionId);\n    }\n\n    /**\n        @notice Accept submission by bounty poster\n        @dev it uses inherited simple bank to manager payments\n        @param submissionId id of submission to be accepted\n     */\n    function accept(uint submissionId)\n        public\n        submissionExists(submissionId)\n        pending(submissionId)\n        onlyPoster(submissions[submissionId].bountyId)\n        opened(submissions[submissionId].bountyId)\n    {\n        submissions[submissionId].state = SubmissionState.Accepted;\n        Bounty storage bounty = bountyList[submissions[submissionId].bountyId];\n        bounty.accepted = submissionId;\n        bounty.state = BountyState.Resolved;\n        enroll(submissions[submissionId].submitter);\n        transfer(address(this), submissions[submissionId].submitter, bounty.reward);\n        emit SubmissionAccepted(submissionId, submissions[submissionId].bountyId);\n    }\n\n    /**\n        @notice Reject submission by bounty poster\n        @dev it uses inherited simple bank to manager payments\n        @param submissionId id of submission to be rejected\n     */\n    function reject(uint submissionId)\n        public        \n    {\n        canAcceptOrReject(submissionId);\n        submissions[submissionId].state = SubmissionState.Rejected;\n        emit SubmissionRejected(submissionId, submissions[submissionId].bountyId);\n    }\n\n    /**\n        common criteria for accepting or rejecting submission\n     */\n    function canAcceptOrReject(uint submissionId)\n        internal\n        view        \n        submissionExists(submissionId)\n        pending(submissionId)\n        onlyPoster(submissions[submissionId].bountyId)\n        opened(submissions[submissionId].bountyId)\n    {\n    }\n\n    /**\n        @notice List all bounties listed by sender\n     */\n    function listMyBounties()\n        public\n        view\n        validSender()\n        returns(uint[] memory bounties)\n    {\n        return myBounties[msg.sender];\n    }\n\n    /**\n        @notice List all submissions listed by sender\n     */\n    function listMySubmissions()\n        public\n        view\n        validSender()        \n        returns(uint[] memory bounties)\n    {\n        return mySubmissions[msg.sender];\n    }\n\n    /**\n        @notice fetch bounty information\n        @param bountyId id of bounty\n     */\n    function fetchBounty(uint bountyId)\n        public\n        view\n        returns(string memory desc, uint reward, address poster, uint state, uint[] memory _submissions)\n    {\n        Bounty memory bounty = bountyList[bountyId];\n        if(bountyId == bounty.id)\n        {\n            desc = bounty.description;\n            reward = bounty.reward;\n            poster = bounty.poster;\n            if(bounty.state == BountyState.Open)\n            {\n                state = 1;\n            }\n            if(bounty.state == BountyState.Closed)\n            {\n                state = 2;\n            }\n            if(bounty.state == BountyState.Resolved)\n            {\n                state = 3;\n            }\n            _submissions = bounty.submissions;\n        }     \n    }\n\n    /**\n        Debutes to be coded later. It's the reason why admin contract is coded so that admins only\n        can resolve debutes\n     */\n    /*\n    function createDepute(uint submissionId, string memory description)\n        public\n        returns(uint deputeId)\n    {\n    }\n\n    function resolveDepute(uint id, bool isPostRight, bool isBountyHunterRight, string memory comment)\n        public\n        returns(bool success)\n    {        \n    }*/\n\n    /**\n        these functions to check status of bounty and submission. used more by tests\n        they will be deleted in the future\n        no need to expose internal state\n     */\n    function isOpen(uint bountyId)\n        public\n        view\n        bountyExists(bountyId)\n        returns(bool)\n    {\n        return bountyList[bountyId].state == BountyState.Open;\n    }\n\n    function isClosed(uint bountyId)\n        public\n        view\n        bountyExists(bountyId)\n        returns(bool)\n    {\n        return bountyList[bountyId].state == BountyState.Closed;\n    }\n\n    function isResolved(uint bountyId)\n        public\n        view\n        bountyExists(bountyId)\n        returns(bool)\n    {\n        return bountyList[bountyId].state == BountyState.Resolved;\n    }\n\n    function isPending(uint submissionId)\n        public\n        view\n        submissionExists(submissionId)\n        returns(bool)\n    {\n        return submissions[submissionId].state == SubmissionState.Pending;\n    }\n\n    function isAccepted(uint submissionId)\n        public\n        view\n        submissionExists(submissionId)\n        returns(bool)\n    {\n        return submissions[submissionId].state == SubmissionState.Accepted;\n    }\n\n    function isRejected(uint submissionId)\n        public\n        view\n        submissionExists(submissionId)\n        returns(bool)\n    {\n        return submissions[submissionId].state == SubmissionState.Rejected;\n    }    \n}",
  "sourcePath": "/home/mohammad/Dev/block_chain/projects/final-project-moahelmy/contracts/BountyNest.sol",
  "compiler": {
    "name": "solc",
    "version": "0.5.0+commit.1d4f565a.Emscripten.clang"
  },
  "schemaVersion": "3.0.1",
  "updatedAt": "2019-01-26T05:31:44.508Z",
  "devdoc": {
    "author": "moahelmy",
    "methods": {
      "accept(uint256)": {
        "details": "it uses inherited simple bank to manager payments",
        "params": {
          "submissionId": "id of submission to be accepted"
        }
      },
      "add(string,uint256)": {
        "params": {
          "_description": "details of the bounty.",
          "_reward": "reward to who gonna resolve it. must be gt zero and lt msg.value"
        },
        "return": "the bounty id to be used in further interactions."
      },
      "addAdmin(address)": {
        "params": {
          "_admin": "address of new admin to be added"
        },
        "return": "success flag"
      },
      "balance()": {
        "return": "The balance of the user"
      },
      "close(uint256)": {
        "params": {
          "bountyId": "id of bounty to get closed"
        }
      },
      "deposit()": {
        "return": "The balance of the user after the deposit is made"
      },
      "enroll()": {
        "return": "The users enrolled status"
      },
      "fetchBounty(uint256)": {
        "params": {
          "bountyId": "id of bounty"
        }
      },
      "isAdmin(address)": {
        "params": {
          "user": "address of user to be checked"
        }
      },
      "reject(uint256)": {
        "details": "it uses inherited simple bank to manager payments",
        "params": {
          "submissionId": "id of submission to be rejected"
        }
      },
      "removeAdmin(address)": {
        "params": {
          "_admin": "address of admin to be removed"
        },
        "return": "success flag"
      },
      "submitResolution(uint256,string)": {
        "params": {
          "bountyId": "id of related bounty",
          "resolution": "submission itself"
        },
        "return": "the id of the created submission"
      },
      "transfer(address,address,uint256)": {
        "details": "unit test to be added later",
        "params": {
          "from": "from account",
          "to": "to account    "
        }
      },
      "withdraw(uint256)": {
        "details": "This does not return any excess ether sent to it",
        "params": {
          "withdrawAmount": "amount you want to withdraw"
        },
        "return": "The balance remaining for the user"
      }
    },
    "title": "manage bounties contract"
  },
  "userdoc": {
    "methods": {
      "accept(uint256)": {
        "notice": "Accept submission by bounty poster"
      },
      "add(string,uint256)": {
        "notice": "Add new bounty."
      },
      "addAdmin(address)": {
        "notice": "Add new admin. only admin can call it"
      },
      "balance()": {
        "notice": "Get balance"
      },
      "close(uint256)": {
        "notice": "Close existing bounty by poster"
      },
      "deposit()": {
        "notice": "Deposit ether into bank"
      },
      "enroll()": {
        "notice": "Enroll a customer with the bank"
      },
      "fetchBounty(uint256)": {
        "notice": "fetch bounty information"
      },
      "isAdmin(address)": {
        "notice": "Check if user is admin        "
      },
      "isOpen(uint256)": {
        "notice": "these functions to check status of bounty and submission. used more by tests they will be deleted in the future no need to expose internal state"
      },
      "listMyBounties()": {
        "notice": "List all bounties listed by sender"
      },
      "listMySubmissions()": {
        "notice": "List all submissions listed by sender"
      },
      "reject(uint256)": {
        "notice": "Reject submission by bounty poster"
      },
      "removeAdmin(address)": {
        "notice": "Remove existing admin. only owner can call it"
      },
      "submitResolution(uint256,string)": {
        "notice": "Add new submission to existing bounty"
      },
      "transfer(address,address,uint256)": {
        "notice": "transfer from account to another"
      },
      "withdraw(uint256)": {
        "notice": "Withdraw ether from bank"
      }
    }
  }
}