{
  "contractName": "BountyNestStorage",
  "abi": [
    {
      "constant": false,
      "inputs": [],
      "name": "toggle",
      "outputs": [],
      "payable": false,
      "stateMutability": "nonpayable",
      "type": "function",
      "signature": "0x40a3d246"
    },
    {
      "constant": true,
      "inputs": [],
      "name": "owner",
      "outputs": [
        {
          "name": "",
          "type": "address"
        }
      ],
      "payable": false,
      "stateMutability": "view",
      "type": "function",
      "signature": "0x8da5cb5b"
    },
    {
      "inputs": [],
      "payable": false,
      "stateMutability": "nonpayable",
      "type": "constructor",
      "signature": "constructor"
    },
    {
      "constant": false,
      "inputs": [
        {
          "name": "poster",
          "type": "address"
        },
        {
          "name": "_description",
          "type": "string"
        },
        {
          "name": "_reward",
          "type": "uint256"
        }
      ],
      "name": "addBounty",
      "outputs": [
        {
          "name": "bountyId",
          "type": "uint256"
        }
      ],
      "payable": false,
      "stateMutability": "nonpayable",
      "type": "function",
      "signature": "0x9e6be0df"
    },
    {
      "constant": false,
      "inputs": [
        {
          "name": "bountyId",
          "type": "uint256"
        }
      ],
      "name": "closeBounty",
      "outputs": [],
      "payable": false,
      "stateMutability": "nonpayable",
      "type": "function",
      "signature": "0xb988997f"
    },
    {
      "constant": false,
      "inputs": [
        {
          "name": "bountyId",
          "type": "uint256"
        }
      ],
      "name": "markAsResolved",
      "outputs": [],
      "payable": false,
      "stateMutability": "nonpayable",
      "type": "function",
      "signature": "0xf7cb5912"
    },
    {
      "constant": false,
      "inputs": [
        {
          "name": "bountyId",
          "type": "uint256"
        },
        {
          "name": "acceptedSubmission",
          "type": "uint256"
        }
      ],
      "name": "setAcceptedSubmission",
      "outputs": [],
      "payable": false,
      "stateMutability": "nonpayable",
      "type": "function",
      "signature": "0x73cc12f1"
    },
    {
      "constant": false,
      "inputs": [
        {
          "name": "bountyId",
          "type": "uint256"
        },
        {
          "name": "resolution",
          "type": "string"
        }
      ],
      "name": "addSubmission",
      "outputs": [
        {
          "name": "submissionId",
          "type": "uint256"
        }
      ],
      "payable": false,
      "stateMutability": "nonpayable",
      "type": "function",
      "signature": "0x2594f3fe"
    },
    {
      "constant": false,
      "inputs": [
        {
          "name": "submissionId",
          "type": "uint256"
        }
      ],
      "name": "markAsAccepted",
      "outputs": [],
      "payable": false,
      "stateMutability": "nonpayable",
      "type": "function",
      "signature": "0xb45deeff"
    },
    {
      "constant": false,
      "inputs": [
        {
          "name": "submissionId",
          "type": "uint256"
        }
      ],
      "name": "markAsRejected",
      "outputs": [],
      "payable": false,
      "stateMutability": "nonpayable",
      "type": "function",
      "signature": "0x3d21d907"
    },
    {
      "constant": true,
      "inputs": [
        {
          "name": "poster",
          "type": "address"
        }
      ],
      "name": "listMyBounties",
      "outputs": [
        {
          "name": "bounties",
          "type": "uint256[]"
        }
      ],
      "payable": false,
      "stateMutability": "view",
      "type": "function",
      "signature": "0x672d46b5"
    },
    {
      "constant": true,
      "inputs": [
        {
          "name": "hunter",
          "type": "address"
        }
      ],
      "name": "listMySubmissions",
      "outputs": [
        {
          "name": "bounties",
          "type": "uint256[]"
        }
      ],
      "payable": false,
      "stateMutability": "view",
      "type": "function",
      "signature": "0x76190284"
    },
    {
      "constant": true,
      "inputs": [
        {
          "name": "bountyId",
          "type": "uint256"
        }
      ],
      "name": "fetchBounty",
      "outputs": [
        {
          "name": "desc",
          "type": "string"
        },
        {
          "name": "reward",
          "type": "uint256"
        },
        {
          "name": "poster",
          "type": "address"
        },
        {
          "name": "state",
          "type": "uint256"
        },
        {
          "name": "_submissions",
          "type": "uint256[]"
        }
      ],
      "payable": false,
      "stateMutability": "view",
      "type": "function",
      "signature": "0x77ca8117"
    },
    {
      "constant": true,
      "inputs": [
        {
          "name": "submissionId",
          "type": "uint256"
        }
      ],
      "name": "fetchSubmission",
      "outputs": [
        {
          "name": "bountyId",
          "type": "uint256"
        },
        {
          "name": "resolution",
          "type": "string"
        },
        {
          "name": "submitter",
          "type": "address"
        },
        {
          "name": "state",
          "type": "uint256"
        }
      ],
      "payable": false,
      "stateMutability": "view",
      "type": "function",
      "signature": "0x61c3b40d"
    },
    {
      "constant": true,
      "inputs": [],
      "name": "getCount",
      "outputs": [
        {
          "name": "",
          "type": "uint256"
        }
      ],
      "payable": false,
      "stateMutability": "view",
      "type": "function",
      "signature": "0xa87d942c"
    }
  ],
  "bytecode": "0x608060405260008060146101000a81548160ff02191690831515021790555034801561002a57600080fd5b50336000806101000a81548173ffffffffffffffffffffffffffffffffffffffff021916908373ffffffffffffffffffffffffffffffffffffffff160217905550600060018190555060006004819055506116948061008a6000396000f3fe6080604052600436106100d0576000357c0100000000000000000000000000000000000000000000000000000000900463ffffffff1680632594f3fe146100d55780633d21d907146101bb57806340a3d246146101f657806361c3b40d1461020d578063672d46b51461030257806373cc12f1146103a857806376190284146103ed57806377ca8117146104935780638da5cb5b146105d05780639e6be0df14610627578063a87d942c1461072d578063b45deeff14610758578063b988997f14610793578063f7cb5912146107ce575b600080fd5b3480156100e157600080fd5b506101a5600480360360408110156100f857600080fd5b81019080803590602001909291908035906020019064010000000081111561011f57600080fd5b82018360208201111561013157600080fd5b8035906020019184600183028401116401000000008311171561015357600080fd5b91908080601f016020809104026020016040519081016040528093929190818152602001838380828437600081840152601f19601f820116905080830192505050505050509192919290505050610809565b6040518082815260200191505060405180910390f35b3480156101c757600080fd5b506101f4600480360360208110156101de57600080fd5b81019080803590602001909291905050506109e7565b005b34801561020257600080fd5b5061020b610a22565b005b34801561021957600080fd5b506102466004803603602081101561023057600080fd5b8101908080359060200190929190505050610b12565b60405180858152602001806020018473ffffffffffffffffffffffffffffffffffffffff1673ffffffffffffffffffffffffffffffffffffffff168152602001838152602001828103825285818151815260200191508051906020019080838360005b838110156102c45780820151818401526020810190506102a9565b50505050905090810190601f1680156102f15780820380516001836020036101000a031916815260200191505b509550505050505060405180910390f35b34801561030e57600080fd5b506103516004803603602081101561032557600080fd5b81019080803573ffffffffffffffffffffffffffffffffffffffff169060200190929190505050610d9e565b6040518080602001828103825283818151815260200191508051906020019060200280838360005b83811015610394578082015181840152602081019050610379565b505050509050019250505060405180910390f35b3480156103b457600080fd5b506103eb600480360360408110156103cb57600080fd5b810190808035906020019092919080359060200190929190505050610e35565b005b3480156103f957600080fd5b5061043c6004803603602081101561041057600080fd5b81019080803573ffffffffffffffffffffffffffffffffffffffff169060200190929190505050610e54565b6040518080602001828103825283818151815260200191508051906020019060200280838360005b8381101561047f578082015181840152602081019050610464565b505050509050019250505060405180910390f35b34801561049f57600080fd5b506104cc600480360360208110156104b657600080fd5b8101908080359060200190929190505050610eeb565b60405180806020018681526020018573ffffffffffffffffffffffffffffffffffffffff1673ffffffffffffffffffffffffffffffffffffffff16815260200184815260200180602001838103835288818151815260200191508051906020019080838360005b8381101561054e578082015181840152602081019050610533565b50505050905090810190601f16801561057b5780820380516001836020036101000a031916815260200191505b50838103825284818151815260200191508051906020019060200280838360005b838110156105b757808201518184015260208101905061059c565b5050505090500197505050505050505060405180910390f35b3480156105dc57600080fd5b506105e56111e4565b604051808273ffffffffffffffffffffffffffffffffffffffff1673ffffffffffffffffffffffffffffffffffffffff16815260200191505060405180910390f35b34801561063357600080fd5b506107176004803603606081101561064a57600080fd5b81019080803573ffffffffffffffffffffffffffffffffffffffff1690602001909291908035906020019064010000000081111561068757600080fd5b82018360208201111561069957600080fd5b803590602001918460018302840111640100000000831117156106bb57600080fd5b91908080601f016020809104026020016040519081016040528093929190818152602001838380828437600081840152601f19601f82011690508083019250505050505050919291929080359060200190929190505050611209565b6040518082815260200191505060405180910390f35b34801561073957600080fd5b5061074261140c565b6040518082815260200191505060405180910390f35b34801561076457600080fd5b506107916004803603602081101561077b57600080fd5b8101908080359060200190929190505050611416565b005b34801561079f57600080fd5b506107cc600480360360208110156107b657600080fd5b8101908080359060200190929190505050611451565b005b3480156107da57600080fd5b50610807600480360360208110156107f157600080fd5b810190808035906020019092919050505061148c565b005b60008060149054906101000a900460ff1615151561082657600080fd5b600460008154600101919050819055905060a0604051908101604052808281526020018481526020018381526020013373ffffffffffffffffffffffffffffffffffffffff1681526020016000600281111561087e57fe5b81525060056000838152602001908152602001600020600082015181600001556020820151816001015560408201518160020190805190602001906108c49291906114c6565b5060608201518160030160006101000a81548173ffffffffffffffffffffffffffffffffffffffff021916908373ffffffffffffffffffffffffffffffffffffffff16021790555060808201518160030160146101000a81548160ff0219169083600281111561093057fe5b0217905550905050600660003373ffffffffffffffffffffffffffffffffffffffff1673ffffffffffffffffffffffffffffffffffffffff1681526020019081526020016000208190806001815401808255809150509060018203906000526020600020016000909192909190915055506002600084815260200190815260200160002060060181908060018154018082558091505090600182039060005260206000200160009091929091909150555092915050565b60026005600083815260200190815260200160002060030160146101000a81548160ff02191690836002811115610a1a57fe5b021790555050565b6000809054906101000a900473ffffffffffffffffffffffffffffffffffffffff1673ffffffffffffffffffffffffffffffffffffffff163373ffffffffffffffffffffffffffffffffffffffff16141515610ae6576040517f08c379a000000000000000000000000000000000000000000000000000000000815260040180806020018281038252601a8152602001807f4f6e6c79206f776e65722063616e20616363657373207468697300000000000081525060200191505060405180910390fd5b600060149054906101000a900460ff1615600060146101000a81548160ff021916908315150217905550565b6000606060008084806005600083815260200190815260200160002060000154141515610ba7576040517f08c379a000000000000000000000000000000000000000000000000000000000815260040180806020018281038252600a8152602001807f6e6f74206578697374730000000000000000000000000000000000000000000081525060200191505060405180910390fd5b610baf611546565b6005600088815260200190815260200160002060a060405190810160405290816000820154815260200160018201548152602001600282018054600181600116156101000203166002900480601f016020809104026020016040519081016040528092919081815260200182805460018160011615610100020316600290048015610c7b5780601f10610c5057610100808354040283529160200191610c7b565b820191906000526020600020905b815481529060010190602001808311610c5e57829003601f168201915b505050505081526020016003820160009054906101000a900473ffffffffffffffffffffffffffffffffffffffff1673ffffffffffffffffffffffffffffffffffffffff1673ffffffffffffffffffffffffffffffffffffffff1681526020016003820160149054906101000a900460ff166002811115610cf857fe5b6002811115610d0357fe5b81525050905080602001519550806040015194508060600151935060006002811115610d2b57fe5b81608001516002811115610d3b57fe5b1415610d4657600192505b60016002811115610d5357fe5b81608001516002811115610d6357fe5b1415610d6e57600292505b600280811115610d7a57fe5b81608001516002811115610d8a57fe5b1415610d9557600392505b50509193509193565b6060600360008373ffffffffffffffffffffffffffffffffffffffff1673ffffffffffffffffffffffffffffffffffffffff168152602001908152602001600020805480602002602001604051908101604052809291908181526020018280548015610e2957602002820191906000526020600020905b815481526020019060010190808311610e15575b50505050509050919050565b8060026000848152602001908152602001600020600501819055505050565b6060600660008373ffffffffffffffffffffffffffffffffffffffff1673ffffffffffffffffffffffffffffffffffffffff168152602001908152602001600020805480602002602001604051908101604052809291908181526020018280548015610edf57602002820191906000526020600020905b815481526020019060010190808311610ecb575b50505050509050919050565b60606000806000606085806002600083815260200190815260200160002060000154141515610f82576040517f08c379a000000000000000000000000000000000000000000000000000000000815260040180806020018281038252600a8152602001807f6e6f74206578697374730000000000000000000000000000000000000000000081525060200191505060405180910390fd5b610f8a611597565b6002600089815260200190815260200160002060e0604051908101604052908160008201548152602001600182018054600181600116156101000203166002900480601f01602080910402602001604051908101604052809291908181526020018280546001816001161561010002031660029004801561104c5780601f106110215761010080835404028352916020019161104c565b820191906000526020600020905b81548152906001019060200180831161102f57829003601f168201915b505050505081526020016002820160009054906101000a900473ffffffffffffffffffffffffffffffffffffffff1673ffffffffffffffffffffffffffffffffffffffff1673ffffffffffffffffffffffffffffffffffffffff168152602001600382015481526020016004820160009054906101000a900460ff1660028111156110d357fe5b60028111156110de57fe5b8152602001600582015481526020016006820180548060200260200160405190810160405280929190818152602001828054801561113b57602002820191906000526020600020905b815481526020019060010190808311611127575b50505050508152505090508060200151965080606001519550806040015194506000600281111561116857fe5b8160800151600281111561117857fe5b141561118357600193505b6001600281111561119057fe5b816080015160028111156111a057fe5b14156111ab57600293505b6002808111156111b757fe5b816080015160028111156111c757fe5b14156111d257600393505b8060c001519250505091939590929450565b6000809054906101000a900473ffffffffffffffffffffffffffffffffffffffff1681565b60008060149054906101000a900460ff1615151561122657600080fd5b600160008154600101919050819055905060e0604051908101604052808281526020018481526020018573ffffffffffffffffffffffffffffffffffffffff1681526020018381526020016000600281111561127e57fe5b81526020016000815260200160006040519080825280602002602001820160405280156112ba5781602001602082028038833980820191505090505b50815250600260008381526020019081526020016000206000820151816000015560208201518160010190805190602001906112f79291906114c6565b5060408201518160020160006101000a81548173ffffffffffffffffffffffffffffffffffffffff021916908373ffffffffffffffffffffffffffffffffffffffff1602179055506060820151816003015560808201518160040160006101000a81548160ff0219169083600281111561136d57fe5b021790555060a0820151816005015560c08201518160060190805190602001906113989291906115f6565b50905050600360008573ffffffffffffffffffffffffffffffffffffffff1673ffffffffffffffffffffffffffffffffffffffff1681526020019081526020016000208190806001815401808255809150509060018203906000526020600020016000909192909190915055509392505050565b6000600154905090565b60016005600083815260200190815260200160002060030160146101000a81548160ff0219169083600281111561144957fe5b021790555050565b60016002600083815260200190815260200160002060040160006101000a81548160ff0219169083600281111561148457fe5b021790555050565b600280600083815260200190815260200160002060040160006101000a81548160ff021916908360028111156114be57fe5b021790555050565b828054600181600116156101000203166002900490600052602060002090601f016020900481019282601f1061150757805160ff1916838001178555611535565b82800160010185558215611535579182015b82811115611534578251825591602001919060010190611519565b5b5090506115429190611643565b5090565b60a060405190810160405280600081526020016000815260200160608152602001600073ffffffffffffffffffffffffffffffffffffffff1681526020016000600281111561159157fe5b81525090565b60e0604051908101604052806000815260200160608152602001600073ffffffffffffffffffffffffffffffffffffffff16815260200160008152602001600060028111156115e257fe5b815260200160008152602001606081525090565b828054828255906000526020600020908101928215611632579160200282015b82811115611631578251825591602001919060010190611616565b5b50905061163f9190611643565b5090565b61166591905b80821115611661576000816000905550600101611649565b5090565b9056fea165627a7a72305820065751981d0deae16b11de7558e664073be2259682f319be91ef849a904697790029",
  "source": "pragma solidity ^0.5.0;\nimport \"./Owned.sol\";\nimport \"./CircuitBreaker.sol\";\n\n/**\n    @author moahelmy\n    @title used to store data for bounty nest\n */\ncontract BountyNestStorage is Owned, CircuitBreaker {\n    /**\n        Bounty List\n    */    \n    uint bountiesCount;\n    /// actuall list of bounties that will be looked up\n    mapping(uint => Bounty) bountyList;        \n    /// contains bouties grouped by poster\n    mapping(address => uint[]) myBounties;\n\n    /**\n        Submissions\n     */\n    uint submissionsCount;\n    /// list of submissions\n    mapping(uint => Submission) submissions;\n    /// group submissions by bounty hunters\n    mapping(address => uint[]) mySubmissions;    \n\n    /// enum to track state of bounty\n    enum BountyState { Open, Closed, Resolved }\n\n    struct Bounty {\n        uint id;\n        string description;\n        address poster;\n        uint reward;\n        BountyState state;\n        uint accepted;\n        uint[] submissions;\n    }\n\n    /// enum to track state of submission\n    enum SubmissionState { Pending, Accepted, Rejected }\n    struct Submission {\n        uint id;\n        uint bountyId;        \n        string resolution;\n        address submitter;\n        SubmissionState state;\n    }\n\n    /**\n        @notice modifier to check if bounty exists\n        @param bountyId id of bounty\n     */\n    modifier bountyExists(uint bountyId)\n    {\n        require(bountyList[bountyId].id == bountyId, \"not exists\");\n        _;\n    }\n\n    /**\n        @notice modifier to check if submission exists\n        @param id id of submission\n     */\n    modifier submissionExists(uint id)\n    {\n        require(submissions[id].id == id, \"not exists\");\n        _;\n    }\n\n    constructor () public {\n        bountiesCount = 0;\n        submissionsCount = 0;\n    }\n\n    /**\n        @notice add new bounty to storage\n        @param _description the description of bounty\n        @param _reward the reward to be paid\n     */\n    function addBounty(address poster, string memory _description, uint _reward)\n        public\n        stopInEmergency()\n        returns(uint bountyId)\n    {\n        bountyId = ++bountiesCount;\n        bountyList[bountyId] = Bounty({\n            id: bountyId,\n            description: _description,\n            reward: _reward,\n            state: BountyState.Open,\n            poster: poster,\n            accepted: 0,\n            submissions: new uint[](0)\n        });        \n        myBounties[poster].push(bountyId);        \n    }\n\n    /**\n        @notice mark bounty as closed\n        @param bountyId id of bounty\n     */\n    function closeBounty(uint bountyId) public\n    {\n        bountyList[bountyId].state = BountyState.Closed;\n    }\n\n    /**\n        @notice mark bounty as resolved\n        @param bountyId id of bounty\n     */\n    function markAsResolved(uint bountyId) public\n    {\n        bountyList[bountyId].state = BountyState.Resolved;        \n    }\n\n    /**\n        @notice set the accepted submission for bounty\n        @param bountyId id of bounty\n        @param acceptedSubmission the accepted submission id\n     */\n    function setAcceptedSubmission(uint bountyId, uint acceptedSubmission) public\n    {\n        bountyList[bountyId].accepted = acceptedSubmission;\n    }\n\n    /**\n        @notice Add new submission\n        @param bountyId id of related bounty\n        @param resolution submission itself\n        @return the id of the created submission\n     */\n    function addSubmission(uint bountyId, string memory resolution)\n        public\n        stopInEmergency()\n        returns(uint submissionId)\n    {\n        submissionId = ++submissionsCount;\n        submissions[submissionId] = Submission({\n            id: submissionId,\n            bountyId: bountyId,\n            resolution: resolution,\n            submitter: msg.sender,\n            state: SubmissionState.Pending\n        });\n        mySubmissions[msg.sender].push(submissionId);\n        bountyList[bountyId].submissions.push(submissionId);       \n    }\n\n    /**\n        @notice mark submission as accepted\n        @param submissionId id of submission\n     */\n    function markAsAccepted(uint submissionId) public\n    {\n        submissions[submissionId].state = SubmissionState.Accepted;\n    }\n\n    /**\n        @notice mark submission as rejected\n        @param submissionId id of submission\n     */\n    function markAsRejected(uint submissionId) public\n    {\n        submissions[submissionId].state = SubmissionState.Rejected;\n    }\n\n    /**\n        @notice List all bounties listed by sender\n     */\n    function listMyBounties(address poster)\n        public\n        view        \n        returns(uint[] memory bounties)\n    {\n        return myBounties[poster];\n    }\n\n    /**\n        @notice List all submissions listed by sender\n     */\n    function listMySubmissions(address hunter)\n        public\n        view\n        returns(uint[] memory bounties)\n    {\n        return mySubmissions[hunter];\n    }\n\n    /**\n        @notice fetch bounty information\n        @param bountyId id of bounty\n     */\n    function fetchBounty(uint bountyId)\n        public\n        view\n        bountyExists(bountyId)\n        returns(string memory desc, uint reward, address poster, uint state, uint[] memory _submissions)\n    {\n        Bounty memory bounty = bountyList[bountyId];        \n        desc = bounty.description;\n        reward = bounty.reward;\n        poster = bounty.poster;\n        if (bounty.state == BountyState.Open) {\n            state = 1;\n        }\n        if (bounty.state == BountyState.Closed) {\n            state = 2;\n        }\n        if (bounty.state == BountyState.Resolved) {\n            state = 3;\n        }\n        _submissions = bounty.submissions;        \n    }\n\n    /**\n        @notice fetch submission information\n        @param submissionId id of submission\n     */\n    function fetchSubmission(uint submissionId)\n        public\n        view\n        submissionExists(submissionId)\n        returns(uint bountyId, string memory resolution, address submitter, uint state)\n    {\n        Submission memory submission = submissions[submissionId];        \n        bountyId = submission.bountyId;\n        resolution = submission.resolution;\n        submitter = submission.submitter;\n        if (submission.state == SubmissionState.Pending) {\n            state = 1;\n        }\n        if (submission.state == SubmissionState.Accepted) {\n            state = 2;\n        }\n        if (submission.state == SubmissionState.Rejected) {\n            state = 3;\n        }        \n    }\n\n    /**\n        @notice returns count of bounties\n     */\n    function getCount()\n        public\n        view\n        returns(uint)\n    {\n        return bountiesCount;\n    }\n}",
  "sourcePath": "/home/mohammad/Dev/block_chain/projects/final-project-moahelmy/contracts/BountyNestStorage.sol",
  "compiler": {
    "name": "solc",
    "version": "0.5.0+commit.1d4f565a.Emscripten.clang"
  },
  "schemaVersion": "3.0.1",
  "updatedAt": "2019-01-28T08:00:11.221Z",
  "devdoc": {
    "author": "moahelmy",
    "methods": {
      "addBounty(address,string,uint256)": {
        "params": {
          "_description": "the description of bounty",
          "_reward": "the reward to be paid"
        }
      },
      "addSubmission(uint256,string)": {
        "params": {
          "bountyId": "id of related bounty",
          "resolution": "submission itself"
        },
        "return": "the id of the created submission"
      },
      "closeBounty(uint256)": {
        "params": {
          "bountyId": "id of bounty"
        }
      },
      "fetchBounty(uint256)": {
        "params": {
          "bountyId": "id of bounty"
        }
      },
      "fetchSubmission(uint256)": {
        "params": {
          "submissionId": "id of submission"
        }
      },
      "markAsAccepted(uint256)": {
        "params": {
          "submissionId": "id of submission"
        }
      },
      "markAsRejected(uint256)": {
        "params": {
          "submissionId": "id of submission"
        }
      },
      "markAsResolved(uint256)": {
        "params": {
          "bountyId": "id of bounty"
        }
      },
      "setAcceptedSubmission(uint256,uint256)": {
        "params": {
          "acceptedSubmission": "the accepted submission id",
          "bountyId": "id of bounty"
        }
      }
    },
    "title": "used to store data for bounty nest"
  },
  "userdoc": {
    "methods": {
      "addBounty(address,string,uint256)": {
        "notice": "add new bounty to storage"
      },
      "addSubmission(uint256,string)": {
        "notice": "Add new submission"
      },
      "closeBounty(uint256)": {
        "notice": "mark bounty as closed"
      },
      "fetchBounty(uint256)": {
        "notice": "fetch bounty information"
      },
      "fetchSubmission(uint256)": {
        "notice": "fetch submission information"
      },
      "getCount()": {
        "notice": "returns count of bounties"
      },
      "listMyBounties(address)": {
        "notice": "List all bounties listed by sender"
      },
      "listMySubmissions(address)": {
        "notice": "List all submissions listed by sender"
      },
      "markAsAccepted(uint256)": {
        "notice": "mark submission as accepted"
      },
      "markAsRejected(uint256)": {
        "notice": "mark submission as rejected"
      },
      "markAsResolved(uint256)": {
        "notice": "mark bounty as resolved"
      },
      "setAcceptedSubmission(uint256,uint256)": {
        "notice": "set the accepted submission for bounty"
      }
    }
  }
}