{
  "contractName": "BountyNestBase",
  "abi": [
    {
      "constant": true,
      "inputs": [],
      "name": "bountiesCount",
      "outputs": [
        {
          "name": "",
          "type": "uint256"
        }
      ],
      "payable": false,
      "stateMutability": "view",
      "type": "function"
    },
    {
      "constant": true,
      "inputs": [],
      "name": "submissionsCount",
      "outputs": [
        {
          "name": "",
          "type": "uint256"
        }
      ],
      "payable": false,
      "stateMutability": "view",
      "type": "function"
    },
    {
      "constant": true,
      "inputs": [
        {
          "name": "",
          "type": "uint256"
        }
      ],
      "name": "bountyList",
      "outputs": [
        {
          "name": "id",
          "type": "uint256"
        },
        {
          "name": "description",
          "type": "string"
        },
        {
          "name": "poster",
          "type": "address"
        },
        {
          "name": "reward",
          "type": "uint256"
        },
        {
          "name": "state",
          "type": "uint8"
        },
        {
          "name": "accepted",
          "type": "uint256"
        }
      ],
      "payable": false,
      "stateMutability": "view",
      "type": "function"
    },
    {
      "constant": true,
      "inputs": [
        {
          "name": "",
          "type": "uint256"
        }
      ],
      "name": "submissions",
      "outputs": [
        {
          "name": "id",
          "type": "uint256"
        },
        {
          "name": "bountyId",
          "type": "uint256"
        },
        {
          "name": "resolution",
          "type": "string"
        },
        {
          "name": "submitter",
          "type": "address"
        },
        {
          "name": "state",
          "type": "uint8"
        }
      ],
      "payable": false,
      "stateMutability": "view",
      "type": "function"
    }
  ],
  "bytecode": "0x608060405234801561001057600080fd5b5061050c806100206000396000f3fe608060405260043610610062576000357c0100000000000000000000000000000000000000000000000000000000900463ffffffff16806313b32e971461006757806375d44398146100925780639c695749146100bd578063ad73349e146101ce575b600080fd5b34801561007357600080fd5b5061007c6102d8565b6040518082815260200191505060405180910390f35b34801561009e57600080fd5b506100a76102de565b6040518082815260200191505060405180910390f35b3480156100c957600080fd5b506100f6600480360360208110156100e057600080fd5b81019080803590602001909291905050506102e4565b60405180878152602001806020018673ffffffffffffffffffffffffffffffffffffffff1673ffffffffffffffffffffffffffffffffffffffff16815260200185815260200184600281111561014857fe5b60ff168152602001838152602001828103825287818151815260200191508051906020019080838360005b8381101561018e578082015181840152602081019050610173565b50505050905090810190601f1680156101bb5780820380516001836020036101000a031916815260200191505b5097505050505050505060405180910390f35b3480156101da57600080fd5b50610207600480360360208110156101f157600080fd5b81019080803590602001909291905050506103e5565b60405180868152602001858152602001806020018473ffffffffffffffffffffffffffffffffffffffff1673ffffffffffffffffffffffffffffffffffffffff16815260200183600281111561025957fe5b60ff168152602001828103825285818151815260200191508051906020019080838360005b8381101561029957808201518184015260208101905061027e565b50505050905090810190601f1680156102c65780820380516001836020036101000a031916815260200191505b50965050505050505060405180910390f35b60005481565b60035481565b6001602052806000526040600020600091509050806000015490806001018054600181600116156101000203166002900480601f0160208091040260200160405190810160405280929190818152602001828054600181600116156101000203166002900480156103965780601f1061036b57610100808354040283529160200191610396565b820191906000526020600020905b81548152906001019060200180831161037957829003601f168201915b5050505050908060020160009054906101000a900473ffffffffffffffffffffffffffffffffffffffff16908060030154908060040160009054906101000a900460ff16908060050154905086565b6004602052806000526040600020600091509050806000015490806001015490806002018054600181600116156101000203166002900480601f01602080910402602001604051908101604052809291908181526020018280546001816001161561010002031660029004801561049d5780601f106104725761010080835404028352916020019161049d565b820191906000526020600020905b81548152906001019060200180831161048057829003601f168201915b5050505050908060030160009054906101000a900473ffffffffffffffffffffffffffffffffffffffff16908060030160149054906101000a900460ff1690508556fea165627a7a723058208a6901569401961b5997f18d2c75182178b44bfb38034fc1fc9f1addf0dfb98f0029",
  "source": "pragma solidity ^0.5.0;\n\n/**\n    @author moahelmy\n    @title used to store data for bounty nest\n */\ncontract BountyNestBase\n{\n    /**\n        Bounty List\n    */    \n    uint public bountiesCount;\n    /// actuall list of bounties that will be looked up\n    mapping(uint => Bounty) public bountyList;        \n    /// contains bouties grouped by poster\n    mapping(address => uint[]) myBounties;\n\n    /**\n        Submissions\n     */\n    uint public submissionsCount;\n    /// list of submissions\n    mapping(uint => Submission) public submissions;\n    /// group submissions by bounty hunters\n    mapping(address => uint[]) mySubmissions;    \n\n    /// enum to track state of bounty\n    enum BountyState { Open, Closed, Resolved }\n\n    struct Bounty\n    {\n        uint id;\n        string description;\n        address poster;\n        uint reward;\n        BountyState state;\n        uint accepted;\n        uint[] submissions;\n    }\n\n    /// enum to track state of submission\n    enum SubmissionState { Pending, Accepted, Rejected }\n    struct Submission\n    {\n        uint id;\n        uint bountyId;        \n        string resolution;\n        address submitter;\n        SubmissionState state;\n    }\n}",
  "sourcePath": "/home/mohammad/Dev/block_chain/projects/final-project-moahelmy/contracts/BountyNestBase.sol",
  "compiler": {
    "name": "solc",
    "version": "0.5.0+commit.1d4f565a.Emscripten.clang"
  },
  "schemaVersion": "3.0.1",
  "updatedAt": "2019-01-26T11:28:59.148Z",
  "devdoc": {
    "author": "moahelmy",
    "methods": {},
    "title": "used to store data for bounty nest"
  },
  "userdoc": {
    "methods": {}
  }
}