{
  "contractName": "CircuitBreaker",
  "abi": [
    {
      "constant": true,
      "inputs": [],
      "name": "owner",
      "outputs": [
        {
          "name": "",
          "type": "address"
        }
      ],
      "payable": false,
      "stateMutability": "view",
      "type": "function"
    },
    {
      "constant": false,
      "inputs": [],
      "name": "toggle",
      "outputs": [],
      "payable": false,
      "stateMutability": "nonpayable",
      "type": "function"
    }
  ],
  "bytecode": "0x608060405260008060146101000a81548160ff021916908315150217905550336000806101000a81548173ffffffffffffffffffffffffffffffffffffffff021916908373ffffffffffffffffffffffffffffffffffffffff1602179055506102008061006d6000396000f3fe60806040526004361061004c576000357c0100000000000000000000000000000000000000000000000000000000900463ffffffff16806340a3d246146100515780638da5cb5b14610068575b600080fd5b34801561005d57600080fd5b506100666100bf565b005b34801561007457600080fd5b5061007d6101af565b604051808273ffffffffffffffffffffffffffffffffffffffff1673ffffffffffffffffffffffffffffffffffffffff16815260200191505060405180910390f35b6000809054906101000a900473ffffffffffffffffffffffffffffffffffffffff1673ffffffffffffffffffffffffffffffffffffffff163373ffffffffffffffffffffffffffffffffffffffff16141515610183576040517f08c379a000000000000000000000000000000000000000000000000000000000815260040180806020018281038252601a8152602001807f4f6e6c79206f776e65722063616e20616363657373207468697300000000000081525060200191505060405180910390fd5b600060149054906101000a900460ff1615600060146101000a81548160ff021916908315150217905550565b6000809054906101000a900473ffffffffffffffffffffffffffffffffffffffff168156fea165627a7a723058209d183e13145ca983a653cec8f0c61254f5c79b895456162d8e31655c32b350700029",
  "source": "pragma solidity ^0.5.0;\n\nimport \"./Owned.sol\";\n\n/**\n    @author moahelmy\n    @title Allow derived contract to implement circuit breaker pattern\n*/\ncontract CircuitBreaker is Owned {\n    \n    bool private stopped = false;\n\n    /**\n        stops functionality in emergency\n     */     \n    modifier stopInEmergency { require (!stopped); _; }\n\n    /**\n        only functionality working in emergency\n     */\n    modifier onlyInEmergency { require (stopped); _; }\n\n    function toggle() \n        public\n        onlyOwner()\n    {\n        stopped = !stopped;\n    }\n}\n",
  "sourcePath": "/home/mohammad/Dev/block_chain/projects/final-project-moahelmy/contracts/CircuitBreaker.sol",
  "compiler": {
    "name": "solc",
    "version": "0.5.0+commit.1d4f565a.Emscripten.clang"
  },
  "schemaVersion": "3.0.1",
  "updatedAt": "2019-01-26T10:45:33.890Z",
  "devdoc": {
    "author": "moahelmy",
    "methods": {},
    "title": "Allow derived contract to implement circuit breaker pattern"
  },
  "userdoc": {
    "methods": {}
  }
}