{
  "contractName": "Owned",
  "abi": [
    {
      "constant": true,
      "inputs": [],
      "name": "owner",
      "outputs": [
        {
          "name": "",
          "type": "address"
        }
      ],
      "payable": false,
      "stateMutability": "view",
      "type": "function",
      "signature": "0x8da5cb5b"
    },
    {
      "inputs": [],
      "payable": false,
      "stateMutability": "nonpayable",
      "type": "constructor",
      "signature": "constructor"
    }
  ],
  "bytecode": "0x608060405234801561001057600080fd5b50336000806101000a81548173ffffffffffffffffffffffffffffffffffffffff021916908373ffffffffffffffffffffffffffffffffffffffff16021790555060e98061005f6000396000f3fe608060405260043610603f576000357c0100000000000000000000000000000000000000000000000000000000900463ffffffff1680638da5cb5b146044575b600080fd5b348015604f57600080fd5b5060566098565b604051808273ffffffffffffffffffffffffffffffffffffffff1673ffffffffffffffffffffffffffffffffffffffff16815260200191505060405180910390f35b6000809054906101000a900473ffffffffffffffffffffffffffffffffffffffff168156fea165627a7a72305820caf5de8bcb0bd0959abe0aa4f66ad704a46903d51ce3ab1eca848b0604fbde1f0029",
  "source": "pragma solidity ^0.5.0;\n\n/**\n    @author moahelmy\n    @title owned contract to save contract creator. will be inherited by other contracts\n*/\ncontract Owned {\n    address public owner;\n    constructor() public {\n        owner = msg.sender;\n    }\n\n    /* modifier to verify the caller is contract owner */\n    modifier onlyOwner() {\n        require(msg.sender == owner, \"Only owner can access this\");\n        _;\n    }\n}\n",
  "sourcePath": "/home/mohammad/Dev/block_chain/projects/final-project-moahelmy/contracts/Owned.sol",
  "compiler": {
    "name": "solc",
    "version": "0.5.0+commit.1d4f565a.Emscripten.clang"
  },
  "schemaVersion": "3.0.1",
  "updatedAt": "2019-01-26T05:31:44.494Z",
  "devdoc": {
    "author": "moahelmy",
    "methods": {},
    "title": "owned contract to save contract creator. will be inherited by other contracts"
  },
  "userdoc": {
    "methods": {}
  }
}