{
  "contractName": "Relay",
  "abi": [
    {
      "constant": true,
      "inputs": [],
      "name": "owner",
      "outputs": [
        {
          "name": "",
          "type": "address"
        }
      ],
      "payable": false,
      "stateMutability": "view",
      "type": "function"
    },
    {
      "constant": true,
      "inputs": [],
      "name": "currentVersion",
      "outputs": [
        {
          "name": "",
          "type": "address"
        }
      ],
      "payable": false,
      "stateMutability": "view",
      "type": "function"
    },
    {
      "inputs": [
        {
          "name": "initAddr",
          "type": "address"
        }
      ],
      "payable": false,
      "stateMutability": "nonpayable",
      "type": "constructor"
    },
    {
      "payable": false,
      "stateMutability": "nonpayable",
      "type": "fallback"
    },
    {
      "constant": false,
      "inputs": [
        {
          "name": "newVersion",
          "type": "address"
        }
      ],
      "name": "changeContract",
      "outputs": [],
      "payable": false,
      "stateMutability": "nonpayable",
      "type": "function"
    }
  ],
  "bytecode": "0x608060405234801561001057600080fd5b5060405160208061048a8339810180604052602081101561003057600080fd5b8101908080519060200190929190505050336000806101000a81548173ffffffffffffffffffffffffffffffffffffffff021916908373ffffffffffffffffffffffffffffffffffffffff16021790555080600160006101000a81548173ffffffffffffffffffffffffffffffffffffffff021916908373ffffffffffffffffffffffffffffffffffffffff160217905550336000806101000a81548173ffffffffffffffffffffffffffffffffffffffff021916908373ffffffffffffffffffffffffffffffffffffffff16021790555050610378806101126000396000f3fe608060405260043610610057576000357c0100000000000000000000000000000000000000000000000000000000900463ffffffff1680633d71c3af146100fa5780638da5cb5b1461014b5780639d888e86146101a2575b34801561006357600080fd5b50600160009054906101000a900473ffffffffffffffffffffffffffffffffffffffff1673ffffffffffffffffffffffffffffffffffffffff16600036604051808383808284378083019250505092505050600060405180830381855af49150503d80600081146100f0576040519150601f19603f3d011682016040523d82523d6000602084013e6100f5565b606091505b505050005b34801561010657600080fd5b506101496004803603602081101561011d57600080fd5b81019080803573ffffffffffffffffffffffffffffffffffffffff1690602001909291905050506101f9565b005b34801561015757600080fd5b50610160610301565b604051808273ffffffffffffffffffffffffffffffffffffffff1673ffffffffffffffffffffffffffffffffffffffff16815260200191505060405180910390f35b3480156101ae57600080fd5b506101b7610326565b604051808273ffffffffffffffffffffffffffffffffffffffff1673ffffffffffffffffffffffffffffffffffffffff16815260200191505060405180910390f35b6000809054906101000a900473ffffffffffffffffffffffffffffffffffffffff1673ffffffffffffffffffffffffffffffffffffffff163373ffffffffffffffffffffffffffffffffffffffff161415156102bd576040517f08c379a000000000000000000000000000000000000000000000000000000000815260040180806020018281038252601a8152602001807f4f6e6c79206f776e65722063616e20616363657373207468697300000000000081525060200191505060405180910390fd5b80600160006101000a81548173ffffffffffffffffffffffffffffffffffffffff021916908373ffffffffffffffffffffffffffffffffffffffff16021790555050565b6000809054906101000a900473ffffffffffffffffffffffffffffffffffffffff1681565b600160009054906101000a900473ffffffffffffffffffffffffffffffffffffffff168156fea165627a7a7230582084966728384a4ed9d96589b2f425ad07397da6ae7f4ed2bcff4bfd4bfad18d000029",
  "source": "pragma solidity ^0.5.0;\nimport \"./Owned.sol\";\n\n/**\n    @author ConsensSys Academy\n    @title To allow upgrading contracts\n*/ \ncontract Relay is Owned {\n    address public currentVersion;    \n\n    constructor (address initAddr) public\n    {\n        currentVersion = initAddr;\n        owner = msg.sender;\n    }\n\n    /**\n        @notice allow upgrading to new version.\n        @param newVersion the address of deployed new version.\n     */\n    function changeContract(address newVersion) \n        public\n        onlyOwner()\n    {\n        currentVersion = newVersion;\n    }\n\n    /**\n        @notice delagte calls\n     */\n    function() external \n    {\n        currentVersion.delegatecall(msg.data);\n    }\n}",
  "sourcePath": "/home/mohammad/Dev/block_chain/projects/final-project-moahelmy/contracts/Relay.sol",
  "compiler": {
    "name": "solc",
    "version": "0.5.0+commit.1d4f565a.Emscripten.clang"
  },
  "schemaVersion": "3.0.1",
  "updatedAt": "2019-01-26T11:34:32.453Z",
  "devdoc": {
    "author": "ConsensSys Academy",
    "methods": {
      "changeContract(address)": {
        "params": {
          "newVersion": "the address of deployed new version."
        }
      }
    },
    "title": "To allow upgrading contracts"
  },
  "userdoc": {
    "methods": {
      "changeContract(address)": {
        "notice": "allow upgrading to new version."
      }
    }
  }
}