{
  "contractName": "SimpleStorage",
  "abi": [
    {
      "constant": true,
      "inputs": [],
      "name": "storedPublic",
      "outputs": [
        {
          "name": "",
          "type": "uint256"
        }
      ],
      "payable": false,
      "stateMutability": "view",
      "type": "function",
      "signature": "0xca4838dd"
    },
    {
      "inputs": [],
      "payable": false,
      "stateMutability": "nonpayable",
      "type": "constructor",
      "signature": "constructor"
    },
    {
      "constant": false,
      "inputs": [
        {
          "name": "x",
          "type": "uint256"
        }
      ],
      "name": "set",
      "outputs": [],
      "payable": false,
      "stateMutability": "nonpayable",
      "type": "function",
      "signature": "0x60fe47b1"
    },
    {
      "constant": true,
      "inputs": [],
      "name": "get",
      "outputs": [
        {
          "name": "",
          "type": "uint256"
        }
      ],
      "payable": false,
      "stateMutability": "view",
      "type": "function",
      "signature": "0x6d4ce63c"
    },
    {
      "constant": true,
      "inputs": [],
      "name": "getMe",
      "outputs": [
        {
          "name": "id",
          "type": "uint256"
        },
        {
          "name": "name",
          "type": "string"
        }
      ],
      "payable": false,
      "stateMutability": "view",
      "type": "function",
      "signature": "0xc11e1ff3"
    }
  ],
  "bytecode": "0x608060405234801561001057600080fd5b506014600181905550610218806100286000396000f3fe608060405260043610610062576000357c0100000000000000000000000000000000000000000000000000000000900463ffffffff16806360fe47b1146100675780636d4ce63c146100a2578063c11e1ff3146100cd578063ca4838dd14610164575b600080fd5b34801561007357600080fd5b506100a06004803603602081101561008a57600080fd5b810190808035906020019092919050505061018f565b005b3480156100ae57600080fd5b506100b7610199565b6040518082815260200191505060405180910390f35b3480156100d957600080fd5b506100e26101a2565b6040518083815260200180602001828103825283818151815260200191508051906020019080838360005b8381101561012857808201518184015260208101905061010d565b50505050905090810190601f1680156101555780820380516001836020036101000a031916815260200191505b50935050505060405180910390f35b34801561017057600080fd5b506101796101e6565b6040518082815260200191505060405180910390f35b8060008190555050565b60008054905090565b60006060606491506040805190810160405280600881526020017f4d6f68616d6d616400000000000000000000000000000000000000000000000081525090509091565b6001548156fea165627a7a72305820cccef83379ae14a00c7d25d01af4a60500c0e3a880d421c250724879aaec48280029",
  "source": "pragma solidity ^0.5.0;\n\ncontract SimpleStorage {\n  uint storedData;\n  uint public storedPublic;\n\n  constructor()\n    public\n  {\n    storedPublic = 20;\n  }\n\n  function set(uint x) public {\n    storedData = x;\n  }\n\n  function get() public view returns (uint) {\n    return storedData;\n  }\n\n  function getMe() public view returns(uint id, string memory name) {\n    id = 100;\n    name = \"Mohammad\";\n  }\n}",
  "sourcePath": "/home/mohammad/Dev/block_chain/projects/final-project-moahelmy/contracts/SimpleStorage.sol",
  "compiler": {
    "name": "solc",
    "version": "0.5.0+commit.1d4f565a.Emscripten.clang"
  },
  "schemaVersion": "3.0.1",
  "updatedAt": "2019-01-26T10:53:44.211Z",
  "devdoc": {
    "methods": {}
  },
  "userdoc": {
    "methods": {}
  }
}